{
  "_format": "hh-sol-artifact-1",
  "contractName": "RelayContractor",
  "sourceName": "contracts/RelayContractor.sol",
  "abi": [
    {
      "anonymous": false,
      "inputs": [
        {
          "indexed": true,
          "internalType": "address",
          "name": "profile",
          "type": "address"
        },
        {
          "indexed": true,
          "internalType": "address",
          "name": "keyManager",
          "type": "address"
        },
        {
          "indexed": false,
          "internalType": "uint256",
          "name": "gasUsed",
          "type": "uint256"
        },
        {
          "indexed": false,
          "internalType": "uint256",
          "name": "gasPrice",
          "type": "uint256"
        }
      ],
      "name": "ExecutedRelayCall",
      "type": "event"
    },
    {
      "anonymous": false,
      "inputs": [
        {
          "indexed": false,
          "internalType": "uint8",
          "name": "version",
          "type": "uint8"
        }
      ],
      "name": "Initialized",
      "type": "event"
    },
    {
      "anonymous": false,
      "inputs": [
        {
          "indexed": true,
          "internalType": "address",
          "name": "previousOwner",
          "type": "address"
        },
        {
          "indexed": true,
          "internalType": "address",
          "name": "newOwner",
          "type": "address"
        }
      ],
      "name": "OwnershipTransferred",
      "type": "event"
    },
    {
      "inputs": [
        {
          "internalType": "address",
          "name": "keyManager",
          "type": "address"
        },
        {
          "internalType": "uint256",
          "name": "gasPrice",
          "type": "uint256"
        },
        {
          "internalType": "bytes",
          "name": "signature",
          "type": "bytes"
        },
        {
          "internalType": "uint256",
          "name": "nonce",
          "type": "uint256"
        },
        {
          "internalType": "bytes",
          "name": "payload",
          "type": "bytes"
        }
      ],
      "name": "executeRelayCall",
      "outputs": [
        {
          "internalType": "bool",
          "name": "success",
          "type": "bool"
        },
        {
          "internalType": "bytes",
          "name": "result",
          "type": "bytes"
        }
      ],
      "stateMutability": "payable",
      "type": "function"
    },
    {
      "inputs": [],
      "name": "fee",
      "outputs": [
        {
          "internalType": "uint256",
          "name": "",
          "type": "uint256"
        }
      ],
      "stateMutability": "view",
      "type": "function"
    },
    {
      "inputs": [
        {
          "internalType": "address",
          "name": "owner",
          "type": "address"
        },
        {
          "internalType": "address",
          "name": "rewardToken",
          "type": "address"
        },
        {
          "internalType": "uint256",
          "name": "fee_",
          "type": "uint256"
        }
      ],
      "name": "initialize",
      "outputs": [],
      "stateMutability": "nonpayable",
      "type": "function"
    },
    {
      "inputs": [],
      "name": "owner",
      "outputs": [
        {
          "internalType": "address",
          "name": "",
          "type": "address"
        }
      ],
      "stateMutability": "view",
      "type": "function"
    },
    {
      "inputs": [
        {
          "internalType": "address",
          "name": "profile",
          "type": "address"
        }
      ],
      "name": "quota",
      "outputs": [
        {
          "internalType": "uint256",
          "name": "used",
          "type": "uint256"
        },
        {
          "internalType": "uint256",
          "name": "remaining",
          "type": "uint256"
        }
      ],
      "stateMutability": "view",
      "type": "function"
    },
    {
      "inputs": [],
      "name": "renounceOwnership",
      "outputs": [],
      "stateMutability": "nonpayable",
      "type": "function"
    },
    {
      "inputs": [
        {
          "internalType": "uint256",
          "name": "newFee",
          "type": "uint256"
        }
      ],
      "name": "setFee",
      "outputs": [],
      "stateMutability": "nonpayable",
      "type": "function"
    },
    {
      "inputs": [
        {
          "internalType": "address",
          "name": "newRewardToken",
          "type": "address"
        }
      ],
      "name": "setRewardToken",
      "outputs": [],
      "stateMutability": "nonpayable",
      "type": "function"
    },
    {
      "inputs": [
        {
          "internalType": "address",
          "name": "newOwner",
          "type": "address"
        }
      ],
      "name": "transferOwnership",
      "outputs": [],
      "stateMutability": "nonpayable",
      "type": "function"
    }
  ],
  "bytecode": "0x608060405234801561001057600080fd5b50611a76806100206000396000f3fe6080604052600436106100865760003560e01c8063715018a611610059578063715018a61461014c5780638aee8127146101635780638da5cb5b1461018c578063ddca3f43146101b7578063f2fde38b146101e257610086565b80631794bb3c1461008b5780631cee24f5146100b45780635536fa1c146100f257806369fe0e2d14610123575b600080fd5b34801561009757600080fd5b506100b260048036038101906100ad9190610eaa565b61020b565b005b3480156100c057600080fd5b506100db60048036038101906100d69190610efd565b610395565b6040516100e9929190610f39565b60405180910390f35b61010c60048036038101906101079190611108565b610552565b60405161011a929190611261565b60405180910390f35b34801561012f57600080fd5b5061014a60048036038101906101459190611291565b61095c565b005b34801561015857600080fd5b50610161610a2b565b005b34801561016f57600080fd5b5061018a60048036038101906101859190610efd565b610aac565b005b34801561019857600080fd5b506101a1610bbb565b6040516101ae91906112cd565b60405180910390f35b3480156101c357600080fd5b506101cc610be4565b6040516101d991906112e8565b60405180910390f35b3480156101ee57600080fd5b5061020960048036038101906102049190610efd565b610bee565b005b60008060019054906101000a900460ff1615905080801561023c5750600160008054906101000a900460ff1660ff16105b80610269575061024b30610cdf565b1580156102685750600160008054906101000a900460ff1660ff16145b5b6102a8576040517f08c379a000000000000000000000000000000000000000000000000000000000815260040161029f90611386565b60405180910390fd5b60016000806101000a81548160ff021916908360ff16021790555080156102e5576001600060016101000a81548160ff0219169083151502179055505b6102ee84610d02565b8160028190555082600160006101000a81548173ffffffffffffffffffffffffffffffffffffffff021916908373ffffffffffffffffffffffffffffffffffffffff160217905550801561038f5760008060016101000a81548160ff0219169083151502179055507f7f26b83ff96e1f2b6a682f133852f6798a09c465da95921460cefb3847402498600160405161038691906113f8565b60405180910390a15b50505050565b6000806000600160009054906101000a900473ffffffffffffffffffffffffffffffffffffffff1673ffffffffffffffffffffffffffffffffffffffff1663dd62ed3e85306040518363ffffffff1660e01b81526004016103f7929190611413565b60206040518083038186803b15801561040f57600080fd5b505afa158015610423573d6000803e3d6000fd5b505050506040513d601f19601f820116820180604052508101906104479190611451565b90506000600160009054906101000a900473ffffffffffffffffffffffffffffffffffffffff1673ffffffffffffffffffffffffffffffffffffffff166370a08231866040518263ffffffff1660e01b81526004016104a691906112cd565b60206040518083038186803b1580156104be57600080fd5b505afa1580156104d2573d6000803e3d6000fd5b505050506040513d601f19601f820116820180604052508101906104f69190611451565b90508082116105055781610507565b805b9250600360008673ffffffffffffffffffffffffffffffffffffffff1673ffffffffffffffffffffffffffffffffffffffff1681526020019081526020016000205493505050915091565b600060603373ffffffffffffffffffffffffffffffffffffffff16610575610bbb565b73ffffffffffffffffffffffffffffffffffffffff16146105cb576040517f08c379a00000000000000000000000000000000000000000000000000000000081526004016105c2906114ca565b60405180910390fd5b60008873ffffffffffffffffffffffffffffffffffffffff1663d4b839926040518163ffffffff1660e01b815260040160206040518083038186803b15801561061357600080fd5b505afa158015610627573d6000803e3d6000fd5b505050506040513d601f19601f8201168201806040525081019061064b91906114ff565b905060005a90508973ffffffffffffffffffffffffffffffffffffffff1663902d5fa0898989896040518563ffffffff1660e01b81526004016106919493929190611559565b600060405180830381600087803b1580156106ab57600080fd5b505af19250505080156106e157506040513d6000823e3d601f19601f820116820180604052508101906106de9190611610565b60015b610782576106ed611666565b806308c379a0141561071a5750610702611688565b8061070d5750610742565b600094508093505061077d565b634e487b7114156107425761072d61171e565b906107385750610742565b600094505061077d565b3d806000811461076e576040519150601f19603f3d011682016040523d82523d6000602084013e610773565b606091505b5060009450809350505b61078b565b60019450809350505b60005a82610799919061176e565b905060008a826107a991906117a2565b90506000620186a0600254836107bf91906117a2565b6107c9919061182b565b905081600360008773ffffffffffffffffffffffffffffffffffffffff1673ffffffffffffffffffffffffffffffffffffffff168152602001908152602001600020600082825461081a919061185c565b92505081905550600160009054906101000a900473ffffffffffffffffffffffffffffffffffffffff1673ffffffffffffffffffffffffffffffffffffffff166323b872dd86610868610bbb565b8486610874919061185c565b6040518463ffffffff1660e01b8152600401610892939291906118b2565b602060405180830381600087803b1580156108ac57600080fd5b505af11580156108c0573d6000803e3d6000fd5b505050506040513d601f19601f820116820180604052508101906108e49190611915565b508c73ffffffffffffffffffffffffffffffffffffffff168573ffffffffffffffffffffffffffffffffffffffff167fe9aa5d87f7aa5c3bbd935ccd5535ac2fd353110435be7af94fac34be74c07884858f604051610944929190610f39565b60405180910390a35050505050965096945050505050565b3373ffffffffffffffffffffffffffffffffffffffff1661097b610bbb565b73ffffffffffffffffffffffffffffffffffffffff16146109d1576040517f08c379a00000000000000000000000000000000000000000000000000000000081526004016109c8906114ca565b60405180910390fd5b620186a0811115610a17576040517f08c379a0000000000000000000000000000000000000000000000000000000008152600401610a0e9061198e565b60405180910390fd5b8060025414610a2857806002819055505b50565b3373ffffffffffffffffffffffffffffffffffffffff16610a4a610bbb565b73ffffffffffffffffffffffffffffffffffffffff1614610aa0576040517f08c379a0000000000000000000000000000000000000000000000000000000008152600401610a97906114ca565b60405180910390fd5b610aaa6000610d02565b565b3373ffffffffffffffffffffffffffffffffffffffff16610acb610bbb565b73ffffffffffffffffffffffffffffffffffffffff1614610b21576040517f08c379a0000000000000000000000000000000000000000000000000000000008152600401610b18906114ca565b60405180910390fd5b8073ffffffffffffffffffffffffffffffffffffffff16600160009054906101000a900473ffffffffffffffffffffffffffffffffffffffff1673ffffffffffffffffffffffffffffffffffffffff1614610bb85780600160006101000a81548173ffffffffffffffffffffffffffffffffffffffff021916908373ffffffffffffffffffffffffffffffffffffffff1602179055505b50565b60008060029054906101000a900473ffffffffffffffffffffffffffffffffffffffff16905090565b6000600254905090565b3373ffffffffffffffffffffffffffffffffffffffff16610c0d610bbb565b73ffffffffffffffffffffffffffffffffffffffff1614610c63576040517f08c379a0000000000000000000000000000000000000000000000000000000008152600401610c5a906114ca565b60405180910390fd5b600073ffffffffffffffffffffffffffffffffffffffff168173ffffffffffffffffffffffffffffffffffffffff161415610cd3576040517f08c379a0000000000000000000000000000000000000000000000000000000008152600401610cca90611a20565b60405180910390fd5b610cdc81610d02565b50565b6000808273ffffffffffffffffffffffffffffffffffffffff163b119050919050565b610d0a610bbb565b73ffffffffffffffffffffffffffffffffffffffff168173ffffffffffffffffffffffffffffffffffffffff1614610dff5760008060029054906101000a900473ffffffffffffffffffffffffffffffffffffffff16905081600060026101000a81548173ffffffffffffffffffffffffffffffffffffffff021916908373ffffffffffffffffffffffffffffffffffffffff1602179055508173ffffffffffffffffffffffffffffffffffffffff168173ffffffffffffffffffffffffffffffffffffffff167f8be0079c531659141344cd1fd0a4f28419497f9722a3daafe3b4186f6b6457e060405160405180910390a3505b50565b6000604051905090565b600080fd5b600080fd5b600073ffffffffffffffffffffffffffffffffffffffff82169050919050565b6000610e4182610e16565b9050919050565b610e5181610e36565b8114610e5c57600080fd5b50565b600081359050610e6e81610e48565b92915050565b6000819050919050565b610e8781610e74565b8114610e9257600080fd5b50565b600081359050610ea481610e7e565b92915050565b600080600060608486031215610ec357610ec2610e0c565b5b6000610ed186828701610e5f565b9350506020610ee286828701610e5f565b9250506040610ef386828701610e95565b9150509250925092565b600060208284031215610f1357610f12610e0c565b5b6000610f2184828501610e5f565b91505092915050565b610f3381610e74565b82525050565b6000604082019050610f4e6000830185610f2a565b610f5b6020830184610f2a565b9392505050565b600080fd5b600080fd5b6000601f19601f8301169050919050565b7f4e487b7100000000000000000000000000000000000000000000000000000000600052604160045260246000fd5b610fb582610f6c565b810181811067ffffffffffffffff82111715610fd457610fd3610f7d565b5b80604052505050565b6000610fe7610e02565b9050610ff38282610fac565b919050565b600067ffffffffffffffff82111561101357611012610f7d565b5b61101c82610f6c565b9050602081019050919050565b82818337600083830152505050565b600061104b61104684610ff8565b610fdd565b90508281526020810184848401111561106757611066610f67565b5b611072848285611029565b509392505050565b600082601f83011261108f5761108e610f62565b5b813561109f848260208601611038565b91505092915050565b600080fd5b600080fd5b60008083601f8401126110c8576110c7610f62565b5b8235905067ffffffffffffffff8111156110e5576110e46110a8565b5b602083019150836001820283011115611101576111006110ad565b5b9250929050565b60008060008060008060a0878903121561112557611124610e0c565b5b600061113389828a01610e5f565b965050602061114489828a01610e95565b955050604087013567ffffffffffffffff81111561116557611164610e11565b5b61117189828a0161107a565b945050606061118289828a01610e95565b935050608087013567ffffffffffffffff8111156111a3576111a2610e11565b5b6111af89828a016110b2565b92509250509295509295509295565b60008115159050919050565b6111d3816111be565b82525050565b600081519050919050565b600082825260208201905092915050565b60005b838110156112135780820151818401526020810190506111f8565b83811115611222576000848401525b50505050565b6000611233826111d9565b61123d81856111e4565b935061124d8185602086016111f5565b61125681610f6c565b840191505092915050565b600060408201905061127660008301856111ca565b81810360208301526112888184611228565b90509392505050565b6000602082840312156112a7576112a6610e0c565b5b60006112b584828501610e95565b91505092915050565b6112c781610e36565b82525050565b60006020820190506112e260008301846112be565b92915050565b60006020820190506112fd6000830184610f2a565b92915050565b600082825260208201905092915050565b7f496e697469616c697a61626c653a20636f6e747261637420697320616c72656160008201527f647920696e697469616c697a6564000000000000000000000000000000000000602082015250565b6000611370602e83611303565b915061137b82611314565b604082019050919050565b6000602082019050818103600083015261139f81611363565b9050919050565b6000819050919050565b600060ff82169050919050565b6000819050919050565b60006113e26113dd6113d8846113a6565b6113bd565b6113b0565b9050919050565b6113f2816113c7565b82525050565b600060208201905061140d60008301846113e9565b92915050565b600060408201905061142860008301856112be565b61143560208301846112be565b9392505050565b60008151905061144b81610e7e565b92915050565b60006020828403121561146757611466610e0c565b5b60006114758482850161143c565b91505092915050565b7f4f776e61626c653a2063616c6c6572206973206e6f7420746865206f776e6572600082015250565b60006114b4602083611303565b91506114bf8261147e565b602082019050919050565b600060208201905081810360008301526114e3816114a7565b9050919050565b6000815190506114f981610e48565b92915050565b60006020828403121561151557611514610e0c565b5b6000611523848285016114ea565b91505092915050565b600061153883856111e4565b9350611545838584611029565b61154e83610f6c565b840190509392505050565b600060608201905081810360008301526115738187611228565b90506115826020830186610f2a565b818103604083015261159581848661152c565b905095945050505050565b60006115b36115ae84610ff8565b610fdd565b9050828152602081018484840111156115cf576115ce610f67565b5b6115da8482856111f5565b509392505050565b600082601f8301126115f7576115f6610f62565b5b81516116078482602086016115a0565b91505092915050565b60006020828403121561162657611625610e0c565b5b600082015167ffffffffffffffff81111561164457611643610e11565b5b611650848285016115e2565b91505092915050565b60008160e01c9050919050565b600060033d11156116855760046000803e611682600051611659565b90505b90565b600060443d10156116985761171b565b6116a0610e02565b60043d036004823e80513d602482011167ffffffffffffffff821117156116c857505061171b565b808201805167ffffffffffffffff8111156116e6575050505061171b565b80602083010160043d03850181111561170357505050505061171b565b61171282602001850186610fac565b82955050505050505b90565b60008060233d111561173b576020600460003e6001915060005190505b9091565b7f4e487b7100000000000000000000000000000000000000000000000000000000600052601160045260246000fd5b600061177982610e74565b915061178483610e74565b9250828210156117975761179661173f565b5b828203905092915050565b60006117ad82610e74565b91506117b883610e74565b9250817fffffffffffffffffffffffffffffffffffffffffffffffffffffffffffffffff04831182151516156117f1576117f061173f565b5b828202905092915050565b7f4e487b7100000000000000000000000000000000000000000000000000000000600052601260045260246000fd5b600061183682610e74565b915061184183610e74565b925082611851576118506117fc565b5b828204905092915050565b600061186782610e74565b915061187283610e74565b9250827fffffffffffffffffffffffffffffffffffffffffffffffffffffffffffffffff038211156118a7576118a661173f565b5b828201905092915050565b60006060820190506118c760008301866112be565b6118d460208301856112be565b6118e16040830184610f2a565b949350505050565b6118f2816111be565b81146118fd57600080fd5b50565b60008151905061190f816118e9565b92915050565b60006020828403121561192b5761192a610e0c565b5b600061193984828501611900565b91505092915050565b7f496e76616c696420666565000000000000000000000000000000000000000000600082015250565b6000611978600b83611303565b915061198382611942565b602082019050919050565b600060208201905081810360008301526119a78161196b565b9050919050565b7f4f776e61626c653a206e6577206f776e657220697320746865207a65726f206160008201527f6464726573730000000000000000000000000000000000000000000000000000602082015250565b6000611a0a602683611303565b9150611a15826119ae565b604082019050919050565b60006020820190508181036000830152611a39816119fd565b905091905056fea26469706673582212204ea775386b79cbc68a1dfce50e4869b9213679dbbbab9eff3d814b16e1aa3cb164736f6c63430008090033",
  "linkReferences": {},
  "deployedLinkReferences": {}
}