{
  "_format": "hh-sol-artifact-1",
  "contractName": "RelayContractor",
  "sourceName": "contracts/RelayContractor.sol",
  "abi": [
    {
      "anonymous": false,
      "inputs": [
        {
          "indexed": false,
          "internalType": "address",
          "name": "profile",
          "type": "address"
        },
        {
          "indexed": false,
          "internalType": "bytes32",
          "name": "transaction",
          "type": "bytes32"
        }
      ],
      "name": "Executed",
      "type": "event"
    },
    {
      "anonymous": false,
      "inputs": [
        {
          "indexed": false,
          "internalType": "uint8",
          "name": "version",
          "type": "uint8"
        }
      ],
      "name": "Initialized",
      "type": "event"
    },
    {
      "anonymous": false,
      "inputs": [
        {
          "indexed": false,
          "internalType": "address",
          "name": "previous",
          "type": "address"
        },
        {
          "indexed": false,
          "internalType": "address",
          "name": "current",
          "type": "address"
        }
      ],
      "name": "OraclesChanged",
      "type": "event"
    },
    {
      "anonymous": false,
      "inputs": [
        {
          "indexed": true,
          "internalType": "address",
          "name": "previousOwner",
          "type": "address"
        },
        {
          "indexed": true,
          "internalType": "address",
          "name": "newOwner",
          "type": "address"
        }
      ],
      "name": "OwnershipTransferred",
      "type": "event"
    },
    {
      "inputs": [
        {
          "internalType": "address",
          "name": "profile",
          "type": "address"
        },
        {
          "internalType": "bytes32",
          "name": "transaction",
          "type": "bytes32"
        }
      ],
      "name": "execute",
      "outputs": [],
      "stateMutability": "nonpayable",
      "type": "function"
    },
    {
      "inputs": [],
      "name": "fee",
      "outputs": [
        {
          "internalType": "uint256",
          "name": "",
          "type": "uint256"
        }
      ],
      "stateMutability": "view",
      "type": "function"
    },
    {
      "inputs": [
        {
          "internalType": "address",
          "name": "owner",
          "type": "address"
        },
        {
          "internalType": "address",
          "name": "oracles",
          "type": "address"
        },
        {
          "internalType": "address",
          "name": "rewardToken",
          "type": "address"
        },
        {
          "internalType": "uint256",
          "name": "fee_",
          "type": "uint256"
        }
      ],
      "name": "initialize",
      "outputs": [],
      "stateMutability": "nonpayable",
      "type": "function"
    },
    {
      "inputs": [],
      "name": "owner",
      "outputs": [
        {
          "internalType": "address",
          "name": "",
          "type": "address"
        }
      ],
      "stateMutability": "view",
      "type": "function"
    },
    {
      "inputs": [
        {
          "internalType": "address",
          "name": "profile",
          "type": "address"
        }
      ],
      "name": "quota",
      "outputs": [
        {
          "internalType": "uint256",
          "name": "used",
          "type": "uint256"
        },
        {
          "internalType": "uint256",
          "name": "remaining",
          "type": "uint256"
        }
      ],
      "stateMutability": "view",
      "type": "function"
    },
    {
      "inputs": [],
      "name": "renounceOwnership",
      "outputs": [],
      "stateMutability": "nonpayable",
      "type": "function"
    },
    {
      "inputs": [
        {
          "internalType": "uint256",
          "name": "newFee",
          "type": "uint256"
        }
      ],
      "name": "setFee",
      "outputs": [],
      "stateMutability": "nonpayable",
      "type": "function"
    },
    {
      "inputs": [
        {
          "internalType": "address",
          "name": "newOracles",
          "type": "address"
        }
      ],
      "name": "setOracles",
      "outputs": [],
      "stateMutability": "nonpayable",
      "type": "function"
    },
    {
      "inputs": [
        {
          "internalType": "address",
          "name": "newRewardToken",
          "type": "address"
        }
      ],
      "name": "setRewardToken",
      "outputs": [],
      "stateMutability": "nonpayable",
      "type": "function"
    },
    {
      "inputs": [
        {
          "internalType": "bytes32",
          "name": "transaction",
          "type": "bytes32"
        },
        {
          "internalType": "uint256",
          "name": "used",
          "type": "uint256"
        }
      ],
      "name": "submitUsage",
      "outputs": [],
      "stateMutability": "nonpayable",
      "type": "function"
    },
    {
      "inputs": [
        {
          "internalType": "address",
          "name": "newOwner",
          "type": "address"
        }
      ],
      "name": "transferOwnership",
      "outputs": [],
      "stateMutability": "nonpayable",
      "type": "function"
    }
  ],
  "bytecode": "0x608060405234801561001057600080fd5b50611885806100206000396000f3fe608060405234801561001057600080fd5b50600436106100a95760003560e01c80638da5cb5b116100715780638da5cb5b1461013d5780639edd8c741461015b578063cf756fdf14610177578063ddca3f4314610193578063e3f53d42146101b1578063f2fde38b146101cd576100a9565b80631cee24f5146100ae5780633c797565146100df57806369fe0e2d146100fb578063715018a6146101175780638aee812714610121575b600080fd5b6100c860048036038101906100c39190610fe9565b6101e9565b6040516100d692919061102f565b60405180910390f35b6100f960048036038101906100f491906110ba565b6103a6565b005b610115600480360381019061011091906110fa565b610654565b005b61011f610723565b005b61013b60048036038101906101369190610fe9565b6107a4565b005b6101456108b3565b6040516101529190611136565b60405180910390f35b61017560048036038101906101709190611151565b6108dc565b005b610191600480360381019061018c9190611191565b610a82565b005b61019b610c4e565b6040516101a891906111f8565b60405180910390f35b6101cb60048036038101906101c69190610fe9565b610c58565b005b6101e760048036038101906101e29190610fe9565b610d72565b005b6000806000600160009054906101000a900473ffffffffffffffffffffffffffffffffffffffff1673ffffffffffffffffffffffffffffffffffffffff1663dd62ed3e85306040518363ffffffff1660e01b815260040161024b929190611213565b60206040518083038186803b15801561026357600080fd5b505afa158015610277573d6000803e3d6000fd5b505050506040513d601f19601f8201168201806040525081019061029b9190611251565b90506000600160009054906101000a900473ffffffffffffffffffffffffffffffffffffffff1673ffffffffffffffffffffffffffffffffffffffff166370a08231866040518263ffffffff1660e01b81526004016102fa9190611136565b60206040518083038186803b15801561031257600080fd5b505afa158015610326573d6000803e3d6000fd5b505050506040513d601f19601f8201168201806040525081019061034a9190611251565b9050808211610359578161035b565b805b9250600460008673ffffffffffffffffffffffffffffffffffffffff1673ffffffffffffffffffffffffffffffffffffffff1681526020019081526020016000205493505050915091565b600360009054906101000a900473ffffffffffffffffffffffffffffffffffffffff1673ffffffffffffffffffffffffffffffffffffffff163373ffffffffffffffffffffffffffffffffffffffff1614610436576040517f08c379a000000000000000000000000000000000000000000000000000000000815260040161042d906112db565b60405180910390fd5b60006005600084815260200190815260200160002060009054906101000a900473ffffffffffffffffffffffffffffffffffffffff169050600073ffffffffffffffffffffffffffffffffffffffff168173ffffffffffffffffffffffffffffffffffffffff1614156104de576040517f08c379a00000000000000000000000000000000000000000000000000000000081526004016104d590611347565b60405180910390fd5b6000620186a0600254846104f29190611396565b6104fc919061141f565b905082600460008473ffffffffffffffffffffffffffffffffffffffff1673ffffffffffffffffffffffffffffffffffffffff168152602001908152602001600020600082825461054d9190611450565b92505081905550600160009054906101000a900473ffffffffffffffffffffffffffffffffffffffff1673ffffffffffffffffffffffffffffffffffffffff166323b872dd8361059b6108b3565b84876105a79190611450565b6040518463ffffffff1660e01b81526004016105c5939291906114a6565b602060405180830381600087803b1580156105df57600080fd5b505af11580156105f3573d6000803e3d6000fd5b505050506040513d601f19601f820116820180604052508101906106179190611515565b506005600085815260200190815260200160002060006101000a81549073ffffffffffffffffffffffffffffffffffffffff021916905550505050565b3373ffffffffffffffffffffffffffffffffffffffff166106736108b3565b73ffffffffffffffffffffffffffffffffffffffff16146106c9576040517f08c379a00000000000000000000000000000000000000000000000000000000081526004016106c09061158e565b60405180910390fd5b620186a081111561070f576040517f08c379a0000000000000000000000000000000000000000000000000000000008152600401610706906115fa565b60405180910390fd5b806002541461072057806002819055505b50565b3373ffffffffffffffffffffffffffffffffffffffff166107426108b3565b73ffffffffffffffffffffffffffffffffffffffff1614610798576040517f08c379a000000000000000000000000000000000000000000000000000000000815260040161078f9061158e565b60405180910390fd5b6107a26000610e63565b565b3373ffffffffffffffffffffffffffffffffffffffff166107c36108b3565b73ffffffffffffffffffffffffffffffffffffffff1614610819576040517f08c379a00000000000000000000000000000000000000000000000000000000081526004016108109061158e565b60405180910390fd5b8073ffffffffffffffffffffffffffffffffffffffff16600160009054906101000a900473ffffffffffffffffffffffffffffffffffffffff1673ffffffffffffffffffffffffffffffffffffffff16146108b05780600160006101000a81548173ffffffffffffffffffffffffffffffffffffffff021916908373ffffffffffffffffffffffffffffffffffffffff1602179055505b50565b60008060029054906101000a900473ffffffffffffffffffffffffffffffffffffffff16905090565b3373ffffffffffffffffffffffffffffffffffffffff166108fb6108b3565b73ffffffffffffffffffffffffffffffffffffffff1614610951576040517f08c379a00000000000000000000000000000000000000000000000000000000081526004016109489061158e565b60405180910390fd5b600073ffffffffffffffffffffffffffffffffffffffff166005600083815260200190815260200160002060009054906101000a900473ffffffffffffffffffffffffffffffffffffffff1673ffffffffffffffffffffffffffffffffffffffff16146109f3576040517f08c379a00000000000000000000000000000000000000000000000000000000081526004016109ea90611666565b60405180910390fd5b816005600083815260200190815260200160002060006101000a81548173ffffffffffffffffffffffffffffffffffffffff021916908373ffffffffffffffffffffffffffffffffffffffff1602179055507f71ed0a768275994af299aae0bbf451857ec497f011f4efb5d42d76a1075b461b8282604051610a76929190611695565b60405180910390a15050565b60008060019054906101000a900460ff16159050808015610ab35750600160008054906101000a900460ff1660ff16105b80610ae05750610ac230610f63565b158015610adf5750600160008054906101000a900460ff1660ff16145b5b610b1f576040517f08c379a0000000000000000000000000000000000000000000000000000000008152600401610b1690611730565b60405180910390fd5b60016000806101000a81548160ff021916908360ff1602179055508015610b5c576001600060016101000a81548160ff0219169083151502179055505b610b6585610e63565b8160028190555083600360006101000a81548173ffffffffffffffffffffffffffffffffffffffff021916908373ffffffffffffffffffffffffffffffffffffffff16021790555082600160006101000a81548173ffffffffffffffffffffffffffffffffffffffff021916908373ffffffffffffffffffffffffffffffffffffffff1602179055508015610c475760008060016101000a81548160ff0219169083151502179055507f7f26b83ff96e1f2b6a682f133852f6798a09c465da95921460cefb38474024986001604051610c3e91906117a2565b60405180910390a15b5050505050565b6000600254905090565b3373ffffffffffffffffffffffffffffffffffffffff16610c776108b3565b73ffffffffffffffffffffffffffffffffffffffff1614610ccd576040517f08c379a0000000000000000000000000000000000000000000000000000000008152600401610cc49061158e565b60405180910390fd5b6000600360009054906101000a900473ffffffffffffffffffffffffffffffffffffffff16905081600360006101000a81548173ffffffffffffffffffffffffffffffffffffffff021916908373ffffffffffffffffffffffffffffffffffffffff1602179055507fa2b73f698279359a8f36cec7b47e7d796dd6055b67f6d74f06b2ab7eb285fad48183604051610d66929190611213565b60405180910390a15050565b3373ffffffffffffffffffffffffffffffffffffffff16610d916108b3565b73ffffffffffffffffffffffffffffffffffffffff1614610de7576040517f08c379a0000000000000000000000000000000000000000000000000000000008152600401610dde9061158e565b60405180910390fd5b600073ffffffffffffffffffffffffffffffffffffffff168173ffffffffffffffffffffffffffffffffffffffff161415610e57576040517f08c379a0000000000000000000000000000000000000000000000000000000008152600401610e4e9061182f565b60405180910390fd5b610e6081610e63565b50565b610e6b6108b3565b73ffffffffffffffffffffffffffffffffffffffff168173ffffffffffffffffffffffffffffffffffffffff1614610f605760008060029054906101000a900473ffffffffffffffffffffffffffffffffffffffff16905081600060026101000a81548173ffffffffffffffffffffffffffffffffffffffff021916908373ffffffffffffffffffffffffffffffffffffffff1602179055508173ffffffffffffffffffffffffffffffffffffffff168173ffffffffffffffffffffffffffffffffffffffff167f8be0079c531659141344cd1fd0a4f28419497f9722a3daafe3b4186f6b6457e060405160405180910390a3505b50565b6000808273ffffffffffffffffffffffffffffffffffffffff163b119050919050565b600080fd5b600073ffffffffffffffffffffffffffffffffffffffff82169050919050565b6000610fb682610f8b565b9050919050565b610fc681610fab565b8114610fd157600080fd5b50565b600081359050610fe381610fbd565b92915050565b600060208284031215610fff57610ffe610f86565b5b600061100d84828501610fd4565b91505092915050565b6000819050919050565b61102981611016565b82525050565b60006040820190506110446000830185611020565b6110516020830184611020565b9392505050565b6000819050919050565b61106b81611058565b811461107657600080fd5b50565b60008135905061108881611062565b92915050565b61109781611016565b81146110a257600080fd5b50565b6000813590506110b48161108e565b92915050565b600080604083850312156110d1576110d0610f86565b5b60006110df85828601611079565b92505060206110f0858286016110a5565b9150509250929050565b6000602082840312156111105761110f610f86565b5b600061111e848285016110a5565b91505092915050565b61113081610fab565b82525050565b600060208201905061114b6000830184611127565b92915050565b6000806040838503121561116857611167610f86565b5b600061117685828601610fd4565b925050602061118785828601611079565b9150509250929050565b600080600080608085870312156111ab576111aa610f86565b5b60006111b987828801610fd4565b94505060206111ca87828801610fd4565b93505060406111db87828801610fd4565b92505060606111ec878288016110a5565b91505092959194509250565b600060208201905061120d6000830184611020565b92915050565b60006040820190506112286000830185611127565b6112356020830184611127565b9392505050565b60008151905061124b8161108e565b92915050565b60006020828403121561126757611266610f86565b5b60006112758482850161123c565b91505092915050565b600082825260208201905092915050565b7f4e6f74206f7261636c6500000000000000000000000000000000000000000000600082015250565b60006112c5600a8361127e565b91506112d08261128f565b602082019050919050565b600060208201905081810360008301526112f4816112b8565b9050919050565b7f496e76616c6964207472616e73616374696f6e00000000000000000000000000600082015250565b600061133160138361127e565b915061133c826112fb565b602082019050919050565b6000602082019050818103600083015261136081611324565b9050919050565b7f4e487b7100000000000000000000000000000000000000000000000000000000600052601160045260246000fd5b60006113a182611016565b91506113ac83611016565b9250817fffffffffffffffffffffffffffffffffffffffffffffffffffffffffffffffff04831182151516156113e5576113e4611367565b5b828202905092915050565b7f4e487b7100000000000000000000000000000000000000000000000000000000600052601260045260246000fd5b600061142a82611016565b915061143583611016565b925082611445576114446113f0565b5b828204905092915050565b600061145b82611016565b915061146683611016565b9250827fffffffffffffffffffffffffffffffffffffffffffffffffffffffffffffffff0382111561149b5761149a611367565b5b828201905092915050565b60006060820190506114bb6000830186611127565b6114c86020830185611127565b6114d56040830184611020565b949350505050565b60008115159050919050565b6114f2816114dd565b81146114fd57600080fd5b50565b60008151905061150f816114e9565b92915050565b60006020828403121561152b5761152a610f86565b5b600061153984828501611500565b91505092915050565b7f4f776e61626c653a2063616c6c6572206973206e6f7420746865206f776e6572600082015250565b600061157860208361127e565b915061158382611542565b602082019050919050565b600060208201905081810360008301526115a78161156b565b9050919050565b7f496e76616c696420666565000000000000000000000000000000000000000000600082015250565b60006115e4600b8361127e565b91506115ef826115ae565b602082019050919050565b60006020820190508181036000830152611613816115d7565b9050919050565b7f416c726561647920657865637574656400000000000000000000000000000000600082015250565b600061165060108361127e565b915061165b8261161a565b602082019050919050565b6000602082019050818103600083015261167f81611643565b9050919050565b61168f81611058565b82525050565b60006040820190506116aa6000830185611127565b6116b76020830184611686565b9392505050565b7f496e697469616c697a61626c653a20636f6e747261637420697320616c72656160008201527f647920696e697469616c697a6564000000000000000000000000000000000000602082015250565b600061171a602e8361127e565b9150611725826116be565b604082019050919050565b600060208201905081810360008301526117498161170d565b9050919050565b6000819050919050565b600060ff82169050919050565b6000819050919050565b600061178c61178761178284611750565b611767565b61175a565b9050919050565b61179c81611771565b82525050565b60006020820190506117b76000830184611793565b92915050565b7f4f776e61626c653a206e6577206f776e657220697320746865207a65726f206160008201527f6464726573730000000000000000000000000000000000000000000000000000602082015250565b600061181960268361127e565b9150611824826117bd565b604082019050919050565b600060208201905081810360008301526118488161180c565b905091905056fea26469706673582212204bcaca09db655ca91c48c29ac905abd1f66cb9e25f0d2323704c2417f4dedd3c64736f6c63430008090033",
  "linkReferences": {},
  "deployedLinkReferences": {}
}