{
  "_format": "hh-sol-artifact-1",
  "contractName": "RelayContractor",
  "sourceName": "contracts/RelayContractor.sol",
  "abi": [
    {
      "anonymous": false,
      "inputs": [
        {
          "indexed": false,
          "internalType": "uint8",
          "name": "version",
          "type": "uint8"
        }
      ],
      "name": "Initialized",
      "type": "event"
    },
    {
      "anonymous": false,
      "inputs": [
        {
          "indexed": false,
          "internalType": "address",
          "name": "previous",
          "type": "address"
        },
        {
          "indexed": false,
          "internalType": "address",
          "name": "current",
          "type": "address"
        }
      ],
      "name": "OraclesChanged",
      "type": "event"
    },
    {
      "anonymous": false,
      "inputs": [
        {
          "indexed": true,
          "internalType": "address",
          "name": "previousOwner",
          "type": "address"
        },
        {
          "indexed": true,
          "internalType": "address",
          "name": "newOwner",
          "type": "address"
        }
      ],
      "name": "OwnershipTransferred",
      "type": "event"
    },
    {
      "inputs": [],
      "name": "fee",
      "outputs": [
        {
          "internalType": "uint256",
          "name": "",
          "type": "uint256"
        }
      ],
      "stateMutability": "view",
      "type": "function"
    },
    {
      "inputs": [
        {
          "internalType": "address",
          "name": "owner",
          "type": "address"
        },
        {
          "internalType": "address",
          "name": "oracles",
          "type": "address"
        },
        {
          "internalType": "address",
          "name": "rewardToken",
          "type": "address"
        },
        {
          "internalType": "uint256",
          "name": "fee_",
          "type": "uint256"
        }
      ],
      "name": "initialize",
      "outputs": [],
      "stateMutability": "nonpayable",
      "type": "function"
    },
    {
      "inputs": [],
      "name": "owner",
      "outputs": [
        {
          "internalType": "address",
          "name": "",
          "type": "address"
        }
      ],
      "stateMutability": "view",
      "type": "function"
    },
    {
      "inputs": [
        {
          "internalType": "address",
          "name": "profile",
          "type": "address"
        }
      ],
      "name": "quota",
      "outputs": [
        {
          "internalType": "uint256",
          "name": "used",
          "type": "uint256"
        },
        {
          "internalType": "uint256",
          "name": "remaining",
          "type": "uint256"
        }
      ],
      "stateMutability": "view",
      "type": "function"
    },
    {
      "inputs": [],
      "name": "renounceOwnership",
      "outputs": [],
      "stateMutability": "nonpayable",
      "type": "function"
    },
    {
      "inputs": [
        {
          "internalType": "uint256",
          "name": "newFee",
          "type": "uint256"
        }
      ],
      "name": "setFee",
      "outputs": [],
      "stateMutability": "nonpayable",
      "type": "function"
    },
    {
      "inputs": [
        {
          "internalType": "address",
          "name": "newOracles",
          "type": "address"
        }
      ],
      "name": "setOracles",
      "outputs": [],
      "stateMutability": "nonpayable",
      "type": "function"
    },
    {
      "inputs": [
        {
          "internalType": "address",
          "name": "newRewardToken",
          "type": "address"
        }
      ],
      "name": "setRewardToken",
      "outputs": [],
      "stateMutability": "nonpayable",
      "type": "function"
    },
    {
      "inputs": [
        {
          "internalType": "address",
          "name": "profile",
          "type": "address"
        },
        {
          "internalType": "bytes32",
          "name": "transaction",
          "type": "bytes32"
        },
        {
          "internalType": "uint256",
          "name": "used",
          "type": "uint256"
        }
      ],
      "name": "submitUsage",
      "outputs": [],
      "stateMutability": "nonpayable",
      "type": "function"
    },
    {
      "inputs": [
        {
          "internalType": "address",
          "name": "newOwner",
          "type": "address"
        }
      ],
      "name": "transferOwnership",
      "outputs": [],
      "stateMutability": "nonpayable",
      "type": "function"
    }
  ],
  "bytecode": "0x608060405234801561001057600080fd5b50611646806100206000396000f3fe608060405234801561001057600080fd5b506004361061009e5760003560e01c8063cf756fdf11610066578063cf756fdf14610134578063ddca3f4314610150578063e1d2ab401461016e578063e3f53d421461018a578063f2fde38b146101a65761009e565b80631cee24f5146100a357806369fe0e2d146100d4578063715018a6146100f05780638aee8127146100fa5780638da5cb5b14610116575b600080fd5b6100bd60048036038101906100b89190610e0f565b6101c2565b6040516100cb929190610e55565b60405180910390f35b6100ee60048036038101906100e99190610eaa565b61037f565b005b6100f861044e565b005b610114600480360381019061010f9190610e0f565b6104cf565b005b61011e6105de565b60405161012b9190610ee6565b60405180910390f35b61014e60048036038101906101499190610f01565b610607565b005b6101586107d3565b6040516101659190610f68565b60405180910390f35b61018860048036038101906101839190610fb9565b6107dd565b005b6101a4600480360381019061019f9190610e0f565b610a7e565b005b6101c060048036038101906101bb9190610e0f565b610b98565b005b6000806000600160009054906101000a900473ffffffffffffffffffffffffffffffffffffffff1673ffffffffffffffffffffffffffffffffffffffff1663dd62ed3e85306040518363ffffffff1660e01b815260040161022492919061100c565b60206040518083038186803b15801561023c57600080fd5b505afa158015610250573d6000803e3d6000fd5b505050506040513d601f19601f82011682018060405250810190610274919061104a565b90506000600160009054906101000a900473ffffffffffffffffffffffffffffffffffffffff1673ffffffffffffffffffffffffffffffffffffffff166370a08231866040518263ffffffff1660e01b81526004016102d39190610ee6565b60206040518083038186803b1580156102eb57600080fd5b505afa1580156102ff573d6000803e3d6000fd5b505050506040513d601f19601f82011682018060405250810190610323919061104a565b90508082116103325781610334565b805b9250600460008673ffffffffffffffffffffffffffffffffffffffff1673ffffffffffffffffffffffffffffffffffffffff1681526020019081526020016000205493505050915091565b3373ffffffffffffffffffffffffffffffffffffffff1661039e6105de565b73ffffffffffffffffffffffffffffffffffffffff16146103f4576040517f08c379a00000000000000000000000000000000000000000000000000000000081526004016103eb906110d4565b60405180910390fd5b620186a081111561043a576040517f08c379a000000000000000000000000000000000000000000000000000000000815260040161043190611140565b60405180910390fd5b806002541461044b57806002819055505b50565b3373ffffffffffffffffffffffffffffffffffffffff1661046d6105de565b73ffffffffffffffffffffffffffffffffffffffff16146104c3576040517f08c379a00000000000000000000000000000000000000000000000000000000081526004016104ba906110d4565b60405180910390fd5b6104cd6000610c89565b565b3373ffffffffffffffffffffffffffffffffffffffff166104ee6105de565b73ffffffffffffffffffffffffffffffffffffffff1614610544576040517f08c379a000000000000000000000000000000000000000000000000000000000815260040161053b906110d4565b60405180910390fd5b8073ffffffffffffffffffffffffffffffffffffffff16600160009054906101000a900473ffffffffffffffffffffffffffffffffffffffff1673ffffffffffffffffffffffffffffffffffffffff16146105db5780600160006101000a81548173ffffffffffffffffffffffffffffffffffffffff021916908373ffffffffffffffffffffffffffffffffffffffff1602179055505b50565b60008060029054906101000a900473ffffffffffffffffffffffffffffffffffffffff16905090565b60008060019054906101000a900460ff161590508080156106385750600160008054906101000a900460ff1660ff16105b80610665575061064730610d89565b1580156106645750600160008054906101000a900460ff1660ff16145b5b6106a4576040517f08c379a000000000000000000000000000000000000000000000000000000000815260040161069b906111d2565b60405180910390fd5b60016000806101000a81548160ff021916908360ff16021790555080156106e1576001600060016101000a81548160ff0219169083151502179055505b6106ea85610c89565b8160028190555083600360006101000a81548173ffffffffffffffffffffffffffffffffffffffff021916908373ffffffffffffffffffffffffffffffffffffffff16021790555082600160006101000a81548173ffffffffffffffffffffffffffffffffffffffff021916908373ffffffffffffffffffffffffffffffffffffffff16021790555080156107cc5760008060016101000a81548160ff0219169083151502179055507f7f26b83ff96e1f2b6a682f133852f6798a09c465da95921460cefb384740249860016040516107c39190611244565b60405180910390a15b5050505050565b6000600254905090565b600360009054906101000a900473ffffffffffffffffffffffffffffffffffffffff1673ffffffffffffffffffffffffffffffffffffffff163373ffffffffffffffffffffffffffffffffffffffff161461086d576040517f08c379a0000000000000000000000000000000000000000000000000000000008152600401610864906112ab565b60405180910390fd5b600015156005600084815260200190815260200160002060009054906101000a900460ff161515146108d4576040517f08c379a00000000000000000000000000000000000000000000000000000000081526004016108cb90611317565b60405180910390fd5b60016005600084815260200190815260200160002060006101000a81548160ff0219169083151502179055506000620186a0600254836109149190611366565b61091e91906113ef565b905081600460008673ffffffffffffffffffffffffffffffffffffffff1673ffffffffffffffffffffffffffffffffffffffff168152602001908152602001600020600082825461096f9190611420565b92505081905550600160009054906101000a900473ffffffffffffffffffffffffffffffffffffffff1673ffffffffffffffffffffffffffffffffffffffff166323b872dd856109bd6105de565b84866109c99190611420565b6040518463ffffffff1660e01b81526004016109e793929190611476565b602060405180830381600087803b158015610a0157600080fd5b505af1158015610a15573d6000803e3d6000fd5b505050506040513d601f19601f82011682018060405250810190610a3991906114e5565b610a78576040517f08c379a0000000000000000000000000000000000000000000000000000000008152600401610a6f9061155e565b60405180910390fd5b50505050565b3373ffffffffffffffffffffffffffffffffffffffff16610a9d6105de565b73ffffffffffffffffffffffffffffffffffffffff1614610af3576040517f08c379a0000000000000000000000000000000000000000000000000000000008152600401610aea906110d4565b60405180910390fd5b6000600360009054906101000a900473ffffffffffffffffffffffffffffffffffffffff16905081600360006101000a81548173ffffffffffffffffffffffffffffffffffffffff021916908373ffffffffffffffffffffffffffffffffffffffff1602179055507fa2b73f698279359a8f36cec7b47e7d796dd6055b67f6d74f06b2ab7eb285fad48183604051610b8c92919061100c565b60405180910390a15050565b3373ffffffffffffffffffffffffffffffffffffffff16610bb76105de565b73ffffffffffffffffffffffffffffffffffffffff1614610c0d576040517f08c379a0000000000000000000000000000000000000000000000000000000008152600401610c04906110d4565b60405180910390fd5b600073ffffffffffffffffffffffffffffffffffffffff168173ffffffffffffffffffffffffffffffffffffffff161415610c7d576040517f08c379a0000000000000000000000000000000000000000000000000000000008152600401610c74906115f0565b60405180910390fd5b610c8681610c89565b50565b610c916105de565b73ffffffffffffffffffffffffffffffffffffffff168173ffffffffffffffffffffffffffffffffffffffff1614610d865760008060029054906101000a900473ffffffffffffffffffffffffffffffffffffffff16905081600060026101000a81548173ffffffffffffffffffffffffffffffffffffffff021916908373ffffffffffffffffffffffffffffffffffffffff1602179055508173ffffffffffffffffffffffffffffffffffffffff168173ffffffffffffffffffffffffffffffffffffffff167f8be0079c531659141344cd1fd0a4f28419497f9722a3daafe3b4186f6b6457e060405160405180910390a3505b50565b6000808273ffffffffffffffffffffffffffffffffffffffff163b119050919050565b600080fd5b600073ffffffffffffffffffffffffffffffffffffffff82169050919050565b6000610ddc82610db1565b9050919050565b610dec81610dd1565b8114610df757600080fd5b50565b600081359050610e0981610de3565b92915050565b600060208284031215610e2557610e24610dac565b5b6000610e3384828501610dfa565b91505092915050565b6000819050919050565b610e4f81610e3c565b82525050565b6000604082019050610e6a6000830185610e46565b610e776020830184610e46565b9392505050565b610e8781610e3c565b8114610e9257600080fd5b50565b600081359050610ea481610e7e565b92915050565b600060208284031215610ec057610ebf610dac565b5b6000610ece84828501610e95565b91505092915050565b610ee081610dd1565b82525050565b6000602082019050610efb6000830184610ed7565b92915050565b60008060008060808587031215610f1b57610f1a610dac565b5b6000610f2987828801610dfa565b9450506020610f3a87828801610dfa565b9350506040610f4b87828801610dfa565b9250506060610f5c87828801610e95565b91505092959194509250565b6000602082019050610f7d6000830184610e46565b92915050565b6000819050919050565b610f9681610f83565b8114610fa157600080fd5b50565b600081359050610fb381610f8d565b92915050565b600080600060608486031215610fd257610fd1610dac565b5b6000610fe086828701610dfa565b9350506020610ff186828701610fa4565b925050604061100286828701610e95565b9150509250925092565b60006040820190506110216000830185610ed7565b61102e6020830184610ed7565b9392505050565b60008151905061104481610e7e565b92915050565b6000602082840312156110605761105f610dac565b5b600061106e84828501611035565b91505092915050565b600082825260208201905092915050565b7f4f776e61626c653a2063616c6c6572206973206e6f7420746865206f776e6572600082015250565b60006110be602083611077565b91506110c982611088565b602082019050919050565b600060208201905081810360008301526110ed816110b1565b9050919050565b7f496e76616c696420666565000000000000000000000000000000000000000000600082015250565b600061112a600b83611077565b9150611135826110f4565b602082019050919050565b600060208201905081810360008301526111598161111d565b9050919050565b7f496e697469616c697a61626c653a20636f6e747261637420697320616c72656160008201527f647920696e697469616c697a6564000000000000000000000000000000000000602082015250565b60006111bc602e83611077565b91506111c782611160565b604082019050919050565b600060208201905081810360008301526111eb816111af565b9050919050565b6000819050919050565b600060ff82169050919050565b6000819050919050565b600061122e611229611224846111f2565b611209565b6111fc565b9050919050565b61123e81611213565b82525050565b60006020820190506112596000830184611235565b92915050565b7f4e6f74206f7261636c6500000000000000000000000000000000000000000000600082015250565b6000611295600a83611077565b91506112a08261125f565b602082019050919050565b600060208201905081810360008301526112c481611288565b9050919050565b7f416c72656164792070726f636573736564000000000000000000000000000000600082015250565b6000611301601183611077565b915061130c826112cb565b602082019050919050565b60006020820190508181036000830152611330816112f4565b9050919050565b7f4e487b7100000000000000000000000000000000000000000000000000000000600052601160045260246000fd5b600061137182610e3c565b915061137c83610e3c565b9250817fffffffffffffffffffffffffffffffffffffffffffffffffffffffffffffffff04831182151516156113b5576113b4611337565b5b828202905092915050565b7f4e487b7100000000000000000000000000000000000000000000000000000000600052601260045260246000fd5b60006113fa82610e3c565b915061140583610e3c565b925082611415576114146113c0565b5b828204905092915050565b600061142b82610e3c565b915061143683610e3c565b9250827fffffffffffffffffffffffffffffffffffffffffffffffffffffffffffffffff0382111561146b5761146a611337565b5b828201905092915050565b600060608201905061148b6000830186610ed7565b6114986020830185610ed7565b6114a56040830184610e46565b949350505050565b60008115159050919050565b6114c2816114ad565b81146114cd57600080fd5b50565b6000815190506114df816114b9565b92915050565b6000602082840312156114fb576114fa610dac565b5b6000611509848285016114d0565b91505092915050565b7f446964206e6f74207472616e7366657200000000000000000000000000000000600082015250565b6000611548601083611077565b915061155382611512565b602082019050919050565b600060208201905081810360008301526115778161153b565b9050919050565b7f4f776e61626c653a206e6577206f776e657220697320746865207a65726f206160008201527f6464726573730000000000000000000000000000000000000000000000000000602082015250565b60006115da602683611077565b91506115e58261157e565b604082019050919050565b60006020820190508181036000830152611609816115cd565b905091905056fea26469706673582212208482e36f0af7ce4ad22dadc90ac7db44032ac8eb7c0b0dd61a12cb74ae75287a64736f6c63430008090033",
  "linkReferences": {},
  "deployedLinkReferences": {}
}