{
  "_format": "hh-sol-artifact-1",
  "contractName": "RewardToken",
  "sourceName": "contracts/pool/RewardToken.sol",
  "abi": [
    {
      "inputs": [
        {
          "internalType": "address",
          "name": "owner",
          "type": "address"
        },
        {
          "internalType": "address",
          "name": "oracles",
          "type": "address"
        },
        {
          "internalType": "uint256",
          "name": "rate",
          "type": "uint256"
        },
        {
          "internalType": "string",
          "name": "name",
          "type": "string"
        },
        {
          "internalType": "string",
          "name": "symbol",
          "type": "string"
        }
      ],
      "stateMutability": "nonpayable",
      "type": "constructor"
    },
    {
      "anonymous": false,
      "inputs": [
        {
          "indexed": true,
          "internalType": "address",
          "name": "owner",
          "type": "address"
        },
        {
          "indexed": true,
          "internalType": "address",
          "name": "spender",
          "type": "address"
        },
        {
          "indexed": false,
          "internalType": "uint256",
          "name": "value",
          "type": "uint256"
        }
      ],
      "name": "Approval",
      "type": "event"
    },
    {
      "anonymous": false,
      "inputs": [
        {
          "indexed": false,
          "internalType": "address",
          "name": "previous",
          "type": "address"
        },
        {
          "indexed": false,
          "internalType": "address",
          "name": "current",
          "type": "address"
        }
      ],
      "name": "OraclesChanged",
      "type": "event"
    },
    {
      "anonymous": false,
      "inputs": [
        {
          "indexed": true,
          "internalType": "address",
          "name": "previousOwner",
          "type": "address"
        },
        {
          "indexed": true,
          "internalType": "address",
          "name": "newOwner",
          "type": "address"
        }
      ],
      "name": "OwnershipTransferred",
      "type": "event"
    },
    {
      "anonymous": false,
      "inputs": [
        {
          "indexed": true,
          "internalType": "address",
          "name": "account",
          "type": "address"
        },
        {
          "indexed": false,
          "internalType": "uint256",
          "name": "amount",
          "type": "uint256"
        }
      ],
      "name": "RewardsRedeemed",
      "type": "event"
    },
    {
      "anonymous": false,
      "inputs": [
        {
          "indexed": true,
          "internalType": "address",
          "name": "account",
          "type": "address"
        },
        {
          "indexed": false,
          "internalType": "uint256",
          "name": "amount",
          "type": "uint256"
        }
      ],
      "name": "RewardsUpdated",
      "type": "event"
    },
    {
      "anonymous": false,
      "inputs": [
        {
          "indexed": true,
          "internalType": "address",
          "name": "from",
          "type": "address"
        },
        {
          "indexed": true,
          "internalType": "address",
          "name": "to",
          "type": "address"
        },
        {
          "indexed": false,
          "internalType": "uint256",
          "name": "value",
          "type": "uint256"
        }
      ],
      "name": "Transfer",
      "type": "event"
    },
    {
      "inputs": [
        {
          "internalType": "address",
          "name": "owner",
          "type": "address"
        },
        {
          "internalType": "address",
          "name": "spender",
          "type": "address"
        }
      ],
      "name": "allowance",
      "outputs": [
        {
          "internalType": "uint256",
          "name": "",
          "type": "uint256"
        }
      ],
      "stateMutability": "view",
      "type": "function"
    },
    {
      "inputs": [
        {
          "internalType": "address",
          "name": "spender",
          "type": "address"
        },
        {
          "internalType": "uint256",
          "name": "amount",
          "type": "uint256"
        }
      ],
      "name": "approve",
      "outputs": [
        {
          "internalType": "bool",
          "name": "",
          "type": "bool"
        }
      ],
      "stateMutability": "nonpayable",
      "type": "function"
    },
    {
      "inputs": [
        {
          "internalType": "address",
          "name": "account",
          "type": "address"
        }
      ],
      "name": "balanceOf",
      "outputs": [
        {
          "internalType": "uint256",
          "name": "",
          "type": "uint256"
        }
      ],
      "stateMutability": "view",
      "type": "function"
    },
    {
      "inputs": [],
      "name": "decimals",
      "outputs": [
        {
          "internalType": "uint8",
          "name": "",
          "type": "uint8"
        }
      ],
      "stateMutability": "view",
      "type": "function"
    },
    {
      "inputs": [
        {
          "internalType": "address",
          "name": "spender",
          "type": "address"
        },
        {
          "internalType": "uint256",
          "name": "subtractedValue",
          "type": "uint256"
        }
      ],
      "name": "decreaseAllowance",
      "outputs": [
        {
          "internalType": "bool",
          "name": "",
          "type": "bool"
        }
      ],
      "stateMutability": "nonpayable",
      "type": "function"
    },
    {
      "inputs": [
        {
          "internalType": "address",
          "name": "spender",
          "type": "address"
        },
        {
          "internalType": "uint256",
          "name": "addedValue",
          "type": "uint256"
        }
      ],
      "name": "increaseAllowance",
      "outputs": [
        {
          "internalType": "bool",
          "name": "",
          "type": "bool"
        }
      ],
      "stateMutability": "nonpayable",
      "type": "function"
    },
    {
      "inputs": [],
      "name": "name",
      "outputs": [
        {
          "internalType": "string",
          "name": "",
          "type": "string"
        }
      ],
      "stateMutability": "view",
      "type": "function"
    },
    {
      "inputs": [],
      "name": "owner",
      "outputs": [
        {
          "internalType": "address",
          "name": "",
          "type": "address"
        }
      ],
      "stateMutability": "view",
      "type": "function"
    },
    {
      "inputs": [
        {
          "internalType": "uint256",
          "name": "amount",
          "type": "uint256"
        }
      ],
      "name": "redeem",
      "outputs": [],
      "stateMutability": "payable",
      "type": "function"
    },
    {
      "inputs": [],
      "name": "renounceOwnership",
      "outputs": [],
      "stateMutability": "nonpayable",
      "type": "function"
    },
    {
      "inputs": [],
      "name": "rewardsRate",
      "outputs": [
        {
          "internalType": "uint256",
          "name": "",
          "type": "uint256"
        }
      ],
      "stateMutability": "view",
      "type": "function"
    },
    {
      "inputs": [
        {
          "internalType": "address",
          "name": "newOracles",
          "type": "address"
        }
      ],
      "name": "setOracles",
      "outputs": [],
      "stateMutability": "nonpayable",
      "type": "function"
    },
    {
      "inputs": [
        {
          "internalType": "uint256",
          "name": "newRate",
          "type": "uint256"
        }
      ],
      "name": "setRate",
      "outputs": [],
      "stateMutability": "nonpayable",
      "type": "function"
    },
    {
      "inputs": [
        {
          "internalType": "address",
          "name": "account",
          "type": "address"
        },
        {
          "internalType": "uint256",
          "name": "amount",
          "type": "uint256"
        }
      ],
      "name": "submitRewards",
      "outputs": [],
      "stateMutability": "nonpayable",
      "type": "function"
    },
    {
      "inputs": [],
      "name": "symbol",
      "outputs": [
        {
          "internalType": "string",
          "name": "",
          "type": "string"
        }
      ],
      "stateMutability": "view",
      "type": "function"
    },
    {
      "inputs": [],
      "name": "totalSupply",
      "outputs": [
        {
          "internalType": "uint256",
          "name": "",
          "type": "uint256"
        }
      ],
      "stateMutability": "view",
      "type": "function"
    },
    {
      "inputs": [
        {
          "internalType": "address",
          "name": "to",
          "type": "address"
        },
        {
          "internalType": "uint256",
          "name": "amount",
          "type": "uint256"
        }
      ],
      "name": "transfer",
      "outputs": [
        {
          "internalType": "bool",
          "name": "",
          "type": "bool"
        }
      ],
      "stateMutability": "nonpayable",
      "type": "function"
    },
    {
      "inputs": [
        {
          "internalType": "address",
          "name": "from",
          "type": "address"
        },
        {
          "internalType": "address",
          "name": "to",
          "type": "address"
        },
        {
          "internalType": "uint256",
          "name": "amount",
          "type": "uint256"
        }
      ],
      "name": "transferFrom",
      "outputs": [
        {
          "internalType": "bool",
          "name": "",
          "type": "bool"
        }
      ],
      "stateMutability": "nonpayable",
      "type": "function"
    },
    {
      "inputs": [
        {
          "internalType": "address",
          "name": "newOwner",
          "type": "address"
        }
      ],
      "name": "transferOwnership",
      "outputs": [],
      "stateMutability": "nonpayable",
      "type": "function"
    }
  ],
  "bytecode": "0x60806040523480156200001157600080fd5b50604051620029a4380380620029a48339818101604052810190620000379190620004fa565b81818160039080519060200190620000519291906200020d565b5080600490805190602001906200006a9291906200020d565b50505060016006819055506200008685620000d960201b60201c565b83600760006101000a81548173ffffffffffffffffffffffffffffffffffffffff021916908373ffffffffffffffffffffffffffffffffffffffff16021790555082600881905550505050505062000625565b620000e9620001e360201b60201c565b73ffffffffffffffffffffffffffffffffffffffff168173ffffffffffffffffffffffffffffffffffffffff1614620001e0576000600560009054906101000a900473ffffffffffffffffffffffffffffffffffffffff16905081600560006101000a81548173ffffffffffffffffffffffffffffffffffffffff021916908373ffffffffffffffffffffffffffffffffffffffff1602179055508173ffffffffffffffffffffffffffffffffffffffff168173ffffffffffffffffffffffffffffffffffffffff167f8be0079c531659141344cd1fd0a4f28419497f9722a3daafe3b4186f6b6457e060405160405180910390a3505b50565b6000600560009054906101000a900473ffffffffffffffffffffffffffffffffffffffff16905090565b8280546200021b90620005ef565b90600052602060002090601f0160209004810192826200023f57600085556200028b565b82601f106200025a57805160ff19168380011785556200028b565b828001600101855582156200028b579182015b828111156200028a5782518255916020019190600101906200026d565b5b5090506200029a91906200029e565b5090565b5b80821115620002b95760008160009055506001016200029f565b5090565b6000604051905090565b600080fd5b600080fd5b600073ffffffffffffffffffffffffffffffffffffffff82169050919050565b6000620002fe82620002d1565b9050919050565b6200031081620002f1565b81146200031c57600080fd5b50565b600081519050620003308162000305565b92915050565b6000819050919050565b6200034b8162000336565b81146200035757600080fd5b50565b6000815190506200036b8162000340565b92915050565b600080fd5b600080fd5b6000601f19601f8301169050919050565b7f4e487b7100000000000000000000000000000000000000000000000000000000600052604160045260246000fd5b620003c6826200037b565b810181811067ffffffffffffffff82111715620003e857620003e76200038c565b5b80604052505050565b6000620003fd620002bd565b90506200040b8282620003bb565b919050565b600067ffffffffffffffff8211156200042e576200042d6200038c565b5b62000439826200037b565b9050602081019050919050565b60005b838110156200046657808201518184015260208101905062000449565b8381111562000476576000848401525b50505050565b6000620004936200048d8462000410565b620003f1565b905082815260208101848484011115620004b257620004b162000376565b5b620004bf84828562000446565b509392505050565b600082601f830112620004df57620004de62000371565b5b8151620004f18482602086016200047c565b91505092915050565b600080600080600060a08688031215620005195762000518620002c7565b5b600062000529888289016200031f565b95505060206200053c888289016200031f565b94505060406200054f888289016200035a565b935050606086015167ffffffffffffffff811115620005735762000572620002cc565b5b6200058188828901620004c7565b925050608086015167ffffffffffffffff811115620005a557620005a4620002cc565b5b620005b388828901620004c7565b9150509295509295909350565b7f4e487b7100000000000000000000000000000000000000000000000000000000600052602260045260246000fd5b600060028204905060018216806200060857607f821691505b602082108114156200061f576200061e620005c0565b5b50919050565b61236f80620006356000396000f3fe6080604052600436106101145760003560e01c806370a08231116100a0578063a9059cbb11610064578063a9059cbb146103b5578063db006a75146103f2578063dd62ed3e1461040e578063e3f53d421461044b578063f2fde38b1461047457610114565b806370a08231146102ce578063715018a61461030b5780638da5cb5b1461032257806395d89b411461034d578063a457c2d71461037857610114565b806323b872dd116100e757806323b872dd146101d5578063313ce5671461021257806334fcf4371461023d5780633950935114610266578063523bc7d5146102a357610114565b806306fdde0314610119578063095ea7b3146101445780630a1bcf9f1461018157806318160ddd146101aa575b600080fd5b34801561012557600080fd5b5061012e61049d565b60405161013b919061175d565b60405180910390f35b34801561015057600080fd5b5061016b60048036038101906101669190611818565b61052f565b6040516101789190611873565b60405180910390f35b34801561018d57600080fd5b506101a860048036038101906101a39190611818565b610552565b005b3480156101b657600080fd5b506101bf610646565b6040516101cc919061189d565b60405180910390f35b3480156101e157600080fd5b506101fc60048036038101906101f791906118b8565b610650565b6040516102099190611873565b60405180910390f35b34801561021e57600080fd5b5061022761067f565b6040516102349190611927565b60405180910390f35b34801561024957600080fd5b50610264600480360381019061025f9190611942565b610688565b005b34801561027257600080fd5b5061028d60048036038101906102889190611818565b610722565b60405161029a9190611873565b60405180910390f35b3480156102af57600080fd5b506102b8610759565b6040516102c5919061189d565b60405180910390f35b3480156102da57600080fd5b506102f560048036038101906102f0919061196f565b610763565b604051610302919061189d565b60405180910390f35b34801561031757600080fd5b506103206107ab565b005b34801561032e57600080fd5b5061033761082c565b60405161034491906119ab565b60405180910390f35b34801561035957600080fd5b50610362610856565b60405161036f919061175d565b60405180910390f35b34801561038457600080fd5b5061039f600480360381019061039a9190611818565b6108e8565b6040516103ac9190611873565b60405180910390f35b3480156103c157600080fd5b506103dc60048036038101906103d79190611818565b61095f565b6040516103e99190611873565b60405180910390f35b61040c60048036038101906104079190611942565b610982565b005b34801561041a57600080fd5b50610435600480360381019061043091906119c6565b610af6565b604051610442919061189d565b60405180910390f35b34801561045757600080fd5b50610472600480360381019061046d919061196f565b610b7d565b005b34801561048057600080fd5b5061049b6004803603810190610496919061196f565b610c97565b005b6060600380546104ac90611a35565b80601f01602080910402602001604051908101604052809291908181526020018280546104d890611a35565b80156105255780601f106104fa57610100808354040283529160200191610525565b820191906000526020600020905b81548152906001019060200180831161050857829003601f168201915b5050505050905090565b60008061053a610d88565b9050610547818585610d90565b600191505092915050565b600760009054906101000a900473ffffffffffffffffffffffffffffffffffffffff1673ffffffffffffffffffffffffffffffffffffffff163373ffffffffffffffffffffffffffffffffffffffff16146105e2576040517f08c379a00000000000000000000000000000000000000000000000000000000081526004016105d990611ab3565b60405180910390fd5b6105ec8282610f5b565b8173ffffffffffffffffffffffffffffffffffffffff167f39fe62076cf7adf3c60e355a2da5a4f17a958ca319e8eba385a6c09a8b64901661062d84610763565b60405161063a919061189d565b60405180910390a25050565b6000600254905090565b60008061065b610d88565b90506106688582856110bb565b610673858585611147565b60019150509392505050565b60006012905090565b600760009054906101000a900473ffffffffffffffffffffffffffffffffffffffff1673ffffffffffffffffffffffffffffffffffffffff163373ffffffffffffffffffffffffffffffffffffffff1614610718576040517f08c379a000000000000000000000000000000000000000000000000000000000815260040161070f90611ab3565b60405180910390fd5b8060088190555050565b60008061072d610d88565b905061074e81858561073f8589610af6565b6107499190611b02565b610d90565b600191505092915050565b6000600854905090565b60008060008373ffffffffffffffffffffffffffffffffffffffff1673ffffffffffffffffffffffffffffffffffffffff168152602001908152602001600020549050919050565b3373ffffffffffffffffffffffffffffffffffffffff166107ca61082c565b73ffffffffffffffffffffffffffffffffffffffff1614610820576040517f08c379a000000000000000000000000000000000000000000000000000000000815260040161081790611ba4565b60405180910390fd5b61082a60006113c8565b565b6000600560009054906101000a900473ffffffffffffffffffffffffffffffffffffffff16905090565b60606004805461086590611a35565b80601f016020809104026020016040519081016040528092919081815260200182805461089190611a35565b80156108de5780601f106108b3576101008083540402835291602001916108de565b820191906000526020600020905b8154815290600101906020018083116108c157829003601f168201915b5050505050905090565b6000806108f3610d88565b905060006109018286610af6565b905083811015610946576040517f08c379a000000000000000000000000000000000000000000000000000000000815260040161093d90611c36565b60405180910390fd5b6109538286868403610d90565b60019250505092915050565b60008061096a610d88565b9050610977818585611147565b600191505092915050565b600260065414156109c8576040517f08c379a00000000000000000000000000000000000000000000000000000000081526004016109bf90611ca2565b60405180910390fd5b600260068190555060008111610a13576040517f08c379a0000000000000000000000000000000000000000000000000000000008152600401610a0a90611d0e565b60405180910390fd5b610a1d33826114c9565b6000803373ffffffffffffffffffffffffffffffffffffffff1683604051610a4490611d5f565b60006040518083038185875af1925050503d8060008114610a81576040519150601f19603f3d011682016040523d82523d6000602084013e610a86565b606091505b509150915081610a9b57610a99816116a0565b505b3373ffffffffffffffffffffffffffffffffffffffff167fd3b345692d9b0b5efeefdc998a164ad6b21c95d6223c5643f8fdb7ef6e4b3c4084604051610ae1919061189d565b60405180910390a25050600160068190555050565b6000600160008473ffffffffffffffffffffffffffffffffffffffff1673ffffffffffffffffffffffffffffffffffffffff16815260200190815260200160002060008373ffffffffffffffffffffffffffffffffffffffff1673ffffffffffffffffffffffffffffffffffffffff16815260200190815260200160002054905092915050565b3373ffffffffffffffffffffffffffffffffffffffff16610b9c61082c565b73ffffffffffffffffffffffffffffffffffffffff1614610bf2576040517f08c379a0000000000000000000000000000000000000000000000000000000008152600401610be990611ba4565b60405180910390fd5b6000600760009054906101000a900473ffffffffffffffffffffffffffffffffffffffff16905081600760006101000a81548173ffffffffffffffffffffffffffffffffffffffff021916908373ffffffffffffffffffffffffffffffffffffffff1602179055507fa2b73f698279359a8f36cec7b47e7d796dd6055b67f6d74f06b2ab7eb285fad48183604051610c8b929190611d74565b60405180910390a15050565b3373ffffffffffffffffffffffffffffffffffffffff16610cb661082c565b73ffffffffffffffffffffffffffffffffffffffff1614610d0c576040517f08c379a0000000000000000000000000000000000000000000000000000000008152600401610d0390611ba4565b60405180910390fd5b600073ffffffffffffffffffffffffffffffffffffffff168173ffffffffffffffffffffffffffffffffffffffff161415610d7c576040517f08c379a0000000000000000000000000000000000000000000000000000000008152600401610d7390611e0f565b60405180910390fd5b610d85816113c8565b50565b600033905090565b600073ffffffffffffffffffffffffffffffffffffffff168373ffffffffffffffffffffffffffffffffffffffff161415610e00576040517f08c379a0000000000000000000000000000000000000000000000000000000008152600401610df790611ea1565b60405180910390fd5b600073ffffffffffffffffffffffffffffffffffffffff168273ffffffffffffffffffffffffffffffffffffffff161415610e70576040517f08c379a0000000000000000000000000000000000000000000000000000000008152600401610e6790611f33565b60405180910390fd5b80600160008573ffffffffffffffffffffffffffffffffffffffff1673ffffffffffffffffffffffffffffffffffffffff16815260200190815260200160002060008473ffffffffffffffffffffffffffffffffffffffff1673ffffffffffffffffffffffffffffffffffffffff168152602001908152602001600020819055508173ffffffffffffffffffffffffffffffffffffffff168373ffffffffffffffffffffffffffffffffffffffff167f8c5be1e5ebec7d5bd14f71427d1e84f3dd0314c0f7b2291e5b200ac8c7c3b92583604051610f4e919061189d565b60405180910390a3505050565b600073ffffffffffffffffffffffffffffffffffffffff168273ffffffffffffffffffffffffffffffffffffffff161415610fcb576040517f08c379a0000000000000000000000000000000000000000000000000000000008152600401610fc290611f9f565b60405180910390fd5b610fd7600083836116ba565b8060026000828254610fe99190611b02565b92505081905550806000808473ffffffffffffffffffffffffffffffffffffffff1673ffffffffffffffffffffffffffffffffffffffff168152602001908152602001600020600082825461103e9190611b02565b925050819055508173ffffffffffffffffffffffffffffffffffffffff16600073ffffffffffffffffffffffffffffffffffffffff167fddf252ad1be2c89b69c2b068fc378daa952ba7f163c4a11628f55a4df523b3ef836040516110a3919061189d565b60405180910390a36110b7600083836116bf565b5050565b60006110c78484610af6565b90507fffffffffffffffffffffffffffffffffffffffffffffffffffffffffffffffff81146111415781811015611133576040517f08c379a000000000000000000000000000000000000000000000000000000000815260040161112a9061200b565b60405180910390fd5b6111408484848403610d90565b5b50505050565b600073ffffffffffffffffffffffffffffffffffffffff168373ffffffffffffffffffffffffffffffffffffffff1614156111b7576040517f08c379a00000000000000000000000000000000000000000000000000000000081526004016111ae9061209d565b60405180910390fd5b600073ffffffffffffffffffffffffffffffffffffffff168273ffffffffffffffffffffffffffffffffffffffff161415611227576040517f08c379a000000000000000000000000000000000000000000000000000000000815260040161121e9061212f565b60405180910390fd5b6112328383836116ba565b60008060008573ffffffffffffffffffffffffffffffffffffffff1673ffffffffffffffffffffffffffffffffffffffff168152602001908152602001600020549050818110156112b8576040517f08c379a00000000000000000000000000000000000000000000000000000000081526004016112af906121c1565b60405180910390fd5b8181036000808673ffffffffffffffffffffffffffffffffffffffff1673ffffffffffffffffffffffffffffffffffffffff16815260200190815260200160002081905550816000808573ffffffffffffffffffffffffffffffffffffffff1673ffffffffffffffffffffffffffffffffffffffff168152602001908152602001600020600082825461134b9190611b02565b925050819055508273ffffffffffffffffffffffffffffffffffffffff168473ffffffffffffffffffffffffffffffffffffffff167fddf252ad1be2c89b69c2b068fc378daa952ba7f163c4a11628f55a4df523b3ef846040516113af919061189d565b60405180910390a36113c28484846116bf565b50505050565b6113d061082c565b73ffffffffffffffffffffffffffffffffffffffff168173ffffffffffffffffffffffffffffffffffffffff16146114c6576000600560009054906101000a900473ffffffffffffffffffffffffffffffffffffffff16905081600560006101000a81548173ffffffffffffffffffffffffffffffffffffffff021916908373ffffffffffffffffffffffffffffffffffffffff1602179055508173ffffffffffffffffffffffffffffffffffffffff168173ffffffffffffffffffffffffffffffffffffffff167f8be0079c531659141344cd1fd0a4f28419497f9722a3daafe3b4186f6b6457e060405160405180910390a3505b50565b600073ffffffffffffffffffffffffffffffffffffffff168273ffffffffffffffffffffffffffffffffffffffff161415611539576040517f08c379a000000000000000000000000000000000000000000000000000000000815260040161153090612253565b60405180910390fd5b611545826000836116ba565b60008060008473ffffffffffffffffffffffffffffffffffffffff1673ffffffffffffffffffffffffffffffffffffffff168152602001908152602001600020549050818110156115cb576040517f08c379a00000000000000000000000000000000000000000000000000000000081526004016115c2906122e5565b60405180910390fd5b8181036000808573ffffffffffffffffffffffffffffffffffffffff1673ffffffffffffffffffffffffffffffffffffffff1681526020019081526020016000208190555081600260008282546116229190612305565b92505081905550600073ffffffffffffffffffffffffffffffffffffffff168373ffffffffffffffffffffffffffffffffffffffff167fddf252ad1be2c89b69c2b068fc378daa952ba7f163c4a11628f55a4df523b3ef84604051611687919061189d565b60405180910390a361169b836000846116bf565b505050565b60606000825111156116b55781518083602001fd5b600080fd5b505050565b505050565b600081519050919050565b600082825260208201905092915050565b60005b838110156116fe5780820151818401526020810190506116e3565b8381111561170d576000848401525b50505050565b6000601f19601f8301169050919050565b600061172f826116c4565b61173981856116cf565b93506117498185602086016116e0565b61175281611713565b840191505092915050565b600060208201905081810360008301526117778184611724565b905092915050565b600080fd5b600073ffffffffffffffffffffffffffffffffffffffff82169050919050565b60006117af82611784565b9050919050565b6117bf816117a4565b81146117ca57600080fd5b50565b6000813590506117dc816117b6565b92915050565b6000819050919050565b6117f5816117e2565b811461180057600080fd5b50565b600081359050611812816117ec565b92915050565b6000806040838503121561182f5761182e61177f565b5b600061183d858286016117cd565b925050602061184e85828601611803565b9150509250929050565b60008115159050919050565b61186d81611858565b82525050565b60006020820190506118886000830184611864565b92915050565b611897816117e2565b82525050565b60006020820190506118b2600083018461188e565b92915050565b6000806000606084860312156118d1576118d061177f565b5b60006118df868287016117cd565b93505060206118f0868287016117cd565b925050604061190186828701611803565b9150509250925092565b600060ff82169050919050565b6119218161190b565b82525050565b600060208201905061193c6000830184611918565b92915050565b6000602082840312156119585761195761177f565b5b600061196684828501611803565b91505092915050565b6000602082840312156119855761198461177f565b5b6000611993848285016117cd565b91505092915050565b6119a5816117a4565b82525050565b60006020820190506119c0600083018461199c565b92915050565b600080604083850312156119dd576119dc61177f565b5b60006119eb858286016117cd565b92505060206119fc858286016117cd565b9150509250929050565b7f4e487b7100000000000000000000000000000000000000000000000000000000600052602260045260246000fd5b60006002820490506001821680611a4d57607f821691505b60208210811415611a6157611a60611a06565b5b50919050565b7f4e6f74206f7261636c6500000000000000000000000000000000000000000000600082015250565b6000611a9d600a836116cf565b9150611aa882611a67565b602082019050919050565b60006020820190508181036000830152611acc81611a90565b9050919050565b7f4e487b7100000000000000000000000000000000000000000000000000000000600052601160045260246000fd5b6000611b0d826117e2565b9150611b18836117e2565b9250827fffffffffffffffffffffffffffffffffffffffffffffffffffffffffffffffff03821115611b4d57611b4c611ad3565b5b828201905092915050565b7f4f776e61626c653a2063616c6c6572206973206e6f7420746865206f776e6572600082015250565b6000611b8e6020836116cf565b9150611b9982611b58565b602082019050919050565b60006020820190508181036000830152611bbd81611b81565b9050919050565b7f45524332303a2064656372656173656420616c6c6f77616e63652062656c6f7760008201527f207a65726f000000000000000000000000000000000000000000000000000000602082015250565b6000611c206025836116cf565b9150611c2b82611bc4565b604082019050919050565b60006020820190508181036000830152611c4f81611c13565b9050919050565b7f5265656e7472616e637947756172643a207265656e7472616e742063616c6c00600082015250565b6000611c8c601f836116cf565b9150611c9782611c56565b602082019050919050565b60006020820190508181036000830152611cbb81611c7f565b9050919050565b7f496e76616c696420616d6f756e74000000000000000000000000000000000000600082015250565b6000611cf8600e836116cf565b9150611d0382611cc2565b602082019050919050565b60006020820190508181036000830152611d2781611ceb565b9050919050565b600081905092915050565b50565b6000611d49600083611d2e565b9150611d5482611d39565b600082019050919050565b6000611d6a82611d3c565b9150819050919050565b6000604082019050611d89600083018561199c565b611d96602083018461199c565b9392505050565b7f4f776e61626c653a206e6577206f776e657220697320746865207a65726f206160008201527f6464726573730000000000000000000000000000000000000000000000000000602082015250565b6000611df96026836116cf565b9150611e0482611d9d565b604082019050919050565b60006020820190508181036000830152611e2881611dec565b9050919050565b7f45524332303a20617070726f76652066726f6d20746865207a65726f2061646460008201527f7265737300000000000000000000000000000000000000000000000000000000602082015250565b6000611e8b6024836116cf565b9150611e9682611e2f565b604082019050919050565b60006020820190508181036000830152611eba81611e7e565b9050919050565b7f45524332303a20617070726f766520746f20746865207a65726f20616464726560008201527f7373000000000000000000000000000000000000000000000000000000000000602082015250565b6000611f1d6022836116cf565b9150611f2882611ec1565b604082019050919050565b60006020820190508181036000830152611f4c81611f10565b9050919050565b7f45524332303a206d696e7420746f20746865207a65726f206164647265737300600082015250565b6000611f89601f836116cf565b9150611f9482611f53565b602082019050919050565b60006020820190508181036000830152611fb881611f7c565b9050919050565b7f45524332303a20696e73756666696369656e7420616c6c6f77616e6365000000600082015250565b6000611ff5601d836116cf565b915061200082611fbf565b602082019050919050565b6000602082019050818103600083015261202481611fe8565b9050919050565b7f45524332303a207472616e736665722066726f6d20746865207a65726f20616460008201527f6472657373000000000000000000000000000000000000000000000000000000602082015250565b60006120876025836116cf565b91506120928261202b565b604082019050919050565b600060208201905081810360008301526120b68161207a565b9050919050565b7f45524332303a207472616e7366657220746f20746865207a65726f206164647260008201527f6573730000000000000000000000000000000000000000000000000000000000602082015250565b60006121196023836116cf565b9150612124826120bd565b604082019050919050565b600060208201905081810360008301526121488161210c565b9050919050565b7f45524332303a207472616e7366657220616d6f756e742065786365656473206260008201527f616c616e63650000000000000000000000000000000000000000000000000000602082015250565b60006121ab6026836116cf565b91506121b68261214f565b604082019050919050565b600060208201905081810360008301526121da8161219e565b9050919050565b7f45524332303a206275726e2066726f6d20746865207a65726f2061646472657360008201527f7300000000000000000000000000000000000000000000000000000000000000602082015250565b600061223d6021836116cf565b9150612248826121e1565b604082019050919050565b6000602082019050818103600083015261226c81612230565b9050919050565b7f45524332303a206275726e20616d6f756e7420657863656564732062616c616e60008201527f6365000000000000000000000000000000000000000000000000000000000000602082015250565b60006122cf6022836116cf565b91506122da82612273565b604082019050919050565b600060208201905081810360008301526122fe816122c2565b9050919050565b6000612310826117e2565b915061231b836117e2565b92508282101561232e5761232d611ad3565b5b82820390509291505056fea2646970667358221220dd180fbdd3b6a08dfe659dd6c7a34c7a24af9029f429b20aaa426159f0fdcab164736f6c63430008090033",
  "linkReferences": {},
  "deployedLinkReferences": {}
}