{
  "_format": "hh-sol-artifact-1",
  "contractName": "StakedToken",
  "sourceName": "contracts/pool/StakedToken.sol",
  "abi": [
    {
      "inputs": [
        {
          "internalType": "address",
          "name": "owner",
          "type": "address"
        },
        {
          "internalType": "string",
          "name": "name",
          "type": "string"
        },
        {
          "internalType": "string",
          "name": "symbol",
          "type": "string"
        }
      ],
      "stateMutability": "nonpayable",
      "type": "constructor"
    },
    {
      "anonymous": false,
      "inputs": [
        {
          "indexed": true,
          "internalType": "address",
          "name": "account",
          "type": "address"
        },
        {
          "indexed": false,
          "internalType": "uint256",
          "name": "amount",
          "type": "uint256"
        }
      ],
      "name": "AddedStake",
      "type": "event"
    },
    {
      "anonymous": false,
      "inputs": [
        {
          "indexed": true,
          "internalType": "address",
          "name": "owner",
          "type": "address"
        },
        {
          "indexed": true,
          "internalType": "address",
          "name": "spender",
          "type": "address"
        },
        {
          "indexed": false,
          "internalType": "uint256",
          "name": "value",
          "type": "uint256"
        }
      ],
      "name": "Approval",
      "type": "event"
    },
    {
      "anonymous": false,
      "inputs": [
        {
          "indexed": true,
          "internalType": "address",
          "name": "previousOwner",
          "type": "address"
        },
        {
          "indexed": true,
          "internalType": "address",
          "name": "newOwner",
          "type": "address"
        }
      ],
      "name": "OwnershipTransferred",
      "type": "event"
    },
    {
      "anonymous": false,
      "inputs": [
        {
          "indexed": true,
          "internalType": "address",
          "name": "account",
          "type": "address"
        },
        {
          "indexed": false,
          "internalType": "uint256",
          "name": "amount",
          "type": "uint256"
        }
      ],
      "name": "RemovedStake",
      "type": "event"
    },
    {
      "anonymous": false,
      "inputs": [
        {
          "indexed": true,
          "internalType": "address",
          "name": "from",
          "type": "address"
        },
        {
          "indexed": true,
          "internalType": "address",
          "name": "to",
          "type": "address"
        },
        {
          "indexed": false,
          "internalType": "uint256",
          "name": "value",
          "type": "uint256"
        }
      ],
      "name": "Transfer",
      "type": "event"
    },
    {
      "inputs": [
        {
          "internalType": "address",
          "name": "owner",
          "type": "address"
        },
        {
          "internalType": "address",
          "name": "spender",
          "type": "address"
        }
      ],
      "name": "allowance",
      "outputs": [
        {
          "internalType": "uint256",
          "name": "",
          "type": "uint256"
        }
      ],
      "stateMutability": "view",
      "type": "function"
    },
    {
      "inputs": [
        {
          "internalType": "address",
          "name": "spender",
          "type": "address"
        },
        {
          "internalType": "uint256",
          "name": "amount",
          "type": "uint256"
        }
      ],
      "name": "approve",
      "outputs": [
        {
          "internalType": "bool",
          "name": "",
          "type": "bool"
        }
      ],
      "stateMutability": "nonpayable",
      "type": "function"
    },
    {
      "inputs": [
        {
          "internalType": "address",
          "name": "account",
          "type": "address"
        }
      ],
      "name": "balanceOf",
      "outputs": [
        {
          "internalType": "uint256",
          "name": "",
          "type": "uint256"
        }
      ],
      "stateMutability": "view",
      "type": "function"
    },
    {
      "inputs": [],
      "name": "decimals",
      "outputs": [
        {
          "internalType": "uint8",
          "name": "",
          "type": "uint8"
        }
      ],
      "stateMutability": "view",
      "type": "function"
    },
    {
      "inputs": [
        {
          "internalType": "address",
          "name": "spender",
          "type": "address"
        },
        {
          "internalType": "uint256",
          "name": "subtractedValue",
          "type": "uint256"
        }
      ],
      "name": "decreaseAllowance",
      "outputs": [
        {
          "internalType": "bool",
          "name": "",
          "type": "bool"
        }
      ],
      "stateMutability": "nonpayable",
      "type": "function"
    },
    {
      "inputs": [
        {
          "internalType": "address",
          "name": "spender",
          "type": "address"
        },
        {
          "internalType": "uint256",
          "name": "addedValue",
          "type": "uint256"
        }
      ],
      "name": "increaseAllowance",
      "outputs": [
        {
          "internalType": "bool",
          "name": "",
          "type": "bool"
        }
      ],
      "stateMutability": "nonpayable",
      "type": "function"
    },
    {
      "inputs": [],
      "name": "name",
      "outputs": [
        {
          "internalType": "string",
          "name": "",
          "type": "string"
        }
      ],
      "stateMutability": "view",
      "type": "function"
    },
    {
      "inputs": [],
      "name": "owner",
      "outputs": [
        {
          "internalType": "address",
          "name": "",
          "type": "address"
        }
      ],
      "stateMutability": "view",
      "type": "function"
    },
    {
      "inputs": [],
      "name": "renounceOwnership",
      "outputs": [],
      "stateMutability": "nonpayable",
      "type": "function"
    },
    {
      "inputs": [],
      "name": "stake",
      "outputs": [],
      "stateMutability": "payable",
      "type": "function"
    },
    {
      "inputs": [],
      "name": "symbol",
      "outputs": [
        {
          "internalType": "string",
          "name": "",
          "type": "string"
        }
      ],
      "stateMutability": "view",
      "type": "function"
    },
    {
      "inputs": [],
      "name": "totalSupply",
      "outputs": [
        {
          "internalType": "uint256",
          "name": "",
          "type": "uint256"
        }
      ],
      "stateMutability": "view",
      "type": "function"
    },
    {
      "inputs": [
        {
          "internalType": "address",
          "name": "to",
          "type": "address"
        },
        {
          "internalType": "uint256",
          "name": "amount",
          "type": "uint256"
        }
      ],
      "name": "transfer",
      "outputs": [
        {
          "internalType": "bool",
          "name": "",
          "type": "bool"
        }
      ],
      "stateMutability": "nonpayable",
      "type": "function"
    },
    {
      "inputs": [
        {
          "internalType": "address",
          "name": "from",
          "type": "address"
        },
        {
          "internalType": "address",
          "name": "to",
          "type": "address"
        },
        {
          "internalType": "uint256",
          "name": "amount",
          "type": "uint256"
        }
      ],
      "name": "transferFrom",
      "outputs": [
        {
          "internalType": "bool",
          "name": "",
          "type": "bool"
        }
      ],
      "stateMutability": "nonpayable",
      "type": "function"
    },
    {
      "inputs": [
        {
          "internalType": "address",
          "name": "newOwner",
          "type": "address"
        }
      ],
      "name": "transferOwnership",
      "outputs": [],
      "stateMutability": "nonpayable",
      "type": "function"
    },
    {
      "inputs": [],
      "name": "unstake",
      "outputs": [],
      "stateMutability": "payable",
      "type": "function"
    }
  ],
  "bytecode": "0x60806040523480156200001157600080fd5b506040516200279a3803806200279a833981810160405281019062000037919062000475565b8181816003908051906020019062000051929190620001c3565b5080600490805190602001906200006a929190620001c3565b505050600160068190555062000086836200008f60201b60201c565b50505062000574565b6200009f6200019960201b60201c565b73ffffffffffffffffffffffffffffffffffffffff168173ffffffffffffffffffffffffffffffffffffffff161462000196576000600560009054906101000a900473ffffffffffffffffffffffffffffffffffffffff16905081600560006101000a81548173ffffffffffffffffffffffffffffffffffffffff021916908373ffffffffffffffffffffffffffffffffffffffff1602179055508173ffffffffffffffffffffffffffffffffffffffff168173ffffffffffffffffffffffffffffffffffffffff167f8be0079c531659141344cd1fd0a4f28419497f9722a3daafe3b4186f6b6457e060405160405180910390a3505b50565b6000600560009054906101000a900473ffffffffffffffffffffffffffffffffffffffff16905090565b828054620001d1906200053e565b90600052602060002090601f016020900481019282620001f5576000855562000241565b82601f106200021057805160ff191683800117855562000241565b8280016001018555821562000241579182015b828111156200024057825182559160200191906001019062000223565b5b50905062000250919062000254565b5090565b5b808211156200026f57600081600090555060010162000255565b5090565b6000604051905090565b600080fd5b600080fd5b600073ffffffffffffffffffffffffffffffffffffffff82169050919050565b6000620002b48262000287565b9050919050565b620002c681620002a7565b8114620002d257600080fd5b50565b600081519050620002e681620002bb565b92915050565b600080fd5b600080fd5b6000601f19601f8301169050919050565b7f4e487b7100000000000000000000000000000000000000000000000000000000600052604160045260246000fd5b6200034182620002f6565b810181811067ffffffffffffffff8211171562000363576200036262000307565b5b80604052505050565b60006200037862000273565b905062000386828262000336565b919050565b600067ffffffffffffffff821115620003a957620003a862000307565b5b620003b482620002f6565b9050602081019050919050565b60005b83811015620003e1578082015181840152602081019050620003c4565b83811115620003f1576000848401525b50505050565b60006200040e62000408846200038b565b6200036c565b9050828152602081018484840111156200042d576200042c620002f1565b5b6200043a848285620003c1565b509392505050565b600082601f8301126200045a5762000459620002ec565b5b81516200046c848260208601620003f7565b91505092915050565b6000806000606084860312156200049157620004906200027d565b5b6000620004a186828701620002d5565b935050602084015167ffffffffffffffff811115620004c557620004c462000282565b5b620004d38682870162000442565b925050604084015167ffffffffffffffff811115620004f757620004f662000282565b5b620005058682870162000442565b9150509250925092565b7f4e487b7100000000000000000000000000000000000000000000000000000000600052602260045260246000fd5b600060028204905060018216806200055757607f821691505b602082108114156200056e576200056d6200050f565b5b50919050565b61221680620005846000396000f3fe6080604052600436106100f35760003560e01c806370a082311161008a578063a457c2d711610059578063a457c2d7146102ee578063a9059cbb1461032b578063dd62ed3e14610368578063f2fde38b146103a5576100f3565b806370a0823114610244578063715018a6146102815780638da5cb5b1461029857806395d89b41146102c3576100f3565b80632def6620116100c65780632def6620146101c8578063313ce567146101d257806339509351146101fd5780633a4b66f11461023a576100f3565b806306fdde03146100f8578063095ea7b31461012357806318160ddd1461016057806323b872dd1461018b575b600080fd5b34801561010457600080fd5b5061010d6103ce565b60405161011a91906115ab565b60405180910390f35b34801561012f57600080fd5b5061014a60048036038101906101459190611666565b610460565b60405161015791906116c1565b60405180910390f35b34801561016c57600080fd5b50610175610483565b60405161018291906116eb565b60405180910390f35b34801561019757600080fd5b506101b260048036038101906101ad9190611706565b61048d565b6040516101bf91906116c1565b60405180910390f35b6101d06104bc565b005b3480156101de57600080fd5b506101e761063d565b6040516101f49190611775565b60405180910390f35b34801561020957600080fd5b50610224600480360381019061021f9190611666565b610646565b60405161023191906116c1565b60405180910390f35b61024261067d565b005b34801561025057600080fd5b5061026b60048036038101906102669190611790565b61083f565b60405161027891906116eb565b60405180910390f35b34801561028d57600080fd5b50610296610887565b005b3480156102a457600080fd5b506102ad610908565b6040516102ba91906117cc565b60405180910390f35b3480156102cf57600080fd5b506102d8610932565b6040516102e591906115ab565b60405180910390f35b3480156102fa57600080fd5b5061031560048036038101906103109190611666565b6109c4565b60405161032291906116c1565b60405180910390f35b34801561033757600080fd5b50610352600480360381019061034d9190611666565b610a3b565b60405161035f91906116c1565b60405180910390f35b34801561037457600080fd5b5061038f600480360381019061038a91906117e7565b610a5e565b60405161039c91906116eb565b60405180910390f35b3480156103b157600080fd5b506103cc60048036038101906103c79190611790565b610ae5565b005b6060600380546103dd90611856565b80601f016020809104026020016040519081016040528092919081815260200182805461040990611856565b80156104565780601f1061042b57610100808354040283529160200191610456565b820191906000526020600020905b81548152906001019060200180831161043957829003601f168201915b5050505050905090565b60008061046b610bd6565b9050610478818585610bde565b600191505092915050565b6000600254905090565b600080610498610bd6565b90506104a5858285610da9565b6104b0858585610e35565b60019150509392505050565b60026006541415610502576040517f08c379a00000000000000000000000000000000000000000000000000000000081526004016104f9906118d4565b60405180910390fd5b600260068190555060006105153361083f565b90506000811161055a576040517f08c379a000000000000000000000000000000000000000000000000000000000815260040161055190611940565b60405180910390fd5b61056433826110b6565b6000803373ffffffffffffffffffffffffffffffffffffffff168360405161058b90611991565b60006040518083038185875af1925050503d80600081146105c8576040519150601f19603f3d011682016040523d82523d6000602084013e6105cd565b606091505b5091509150816105e2576105e08161128d565b505b3373ffffffffffffffffffffffffffffffffffffffff167fe52b3c58a116c1f012c99d1120c054e73f51b7a29c457192455fd2c20e03a5338460405161062891906116eb565b60405180910390a25050506001600681905550565b60006012905090565b600080610651610bd6565b90506106728185856106638589610a5e565b61066d91906119d5565b610bde565b600191505092915050565b600260065414156106c3576040517f08c379a00000000000000000000000000000000000000000000000000000000081526004016106ba906118d4565b60405180910390fd5b60026006819055506000341161070e576040517f08c379a000000000000000000000000000000000000000000000000000000000815260040161070590611940565b60405180910390fd5b3373ffffffffffffffffffffffffffffffffffffffff166301ffc9a7639a3bfe8860e01b6040518263ffffffff1660e01b815260040161074e9190611a66565b60206040518083038186803b15801561076657600080fd5b505afa15801561077a573d6000803e3d6000fd5b505050506040513d601f19601f8201168201806040525081019061079e9190611aad565b6107dd576040517f08c379a00000000000000000000000000000000000000000000000000000000081526004016107d490611b26565b60405180910390fd5b6107e733346112a7565b3373ffffffffffffffffffffffffffffffffffffffff167fb6be23168506a1ce62cc6f93339f6710e0984465170ab52df8ecf7da38b345843460405161082d91906116eb565b60405180910390a26001600681905550565b60008060008373ffffffffffffffffffffffffffffffffffffffff1673ffffffffffffffffffffffffffffffffffffffff168152602001908152602001600020549050919050565b3373ffffffffffffffffffffffffffffffffffffffff166108a6610908565b73ffffffffffffffffffffffffffffffffffffffff16146108fc576040517f08c379a00000000000000000000000000000000000000000000000000000000081526004016108f390611b92565b60405180910390fd5b6109066000611407565b565b6000600560009054906101000a900473ffffffffffffffffffffffffffffffffffffffff16905090565b60606004805461094190611856565b80601f016020809104026020016040519081016040528092919081815260200182805461096d90611856565b80156109ba5780601f1061098f576101008083540402835291602001916109ba565b820191906000526020600020905b81548152906001019060200180831161099d57829003601f168201915b5050505050905090565b6000806109cf610bd6565b905060006109dd8286610a5e565b905083811015610a22576040517f08c379a0000000000000000000000000000000000000000000000000000000008152600401610a1990611c24565b60405180910390fd5b610a2f8286868403610bde565b60019250505092915050565b600080610a46610bd6565b9050610a53818585610e35565b600191505092915050565b6000600160008473ffffffffffffffffffffffffffffffffffffffff1673ffffffffffffffffffffffffffffffffffffffff16815260200190815260200160002060008373ffffffffffffffffffffffffffffffffffffffff1673ffffffffffffffffffffffffffffffffffffffff16815260200190815260200160002054905092915050565b3373ffffffffffffffffffffffffffffffffffffffff16610b04610908565b73ffffffffffffffffffffffffffffffffffffffff1614610b5a576040517f08c379a0000000000000000000000000000000000000000000000000000000008152600401610b5190611b92565b60405180910390fd5b600073ffffffffffffffffffffffffffffffffffffffff168173ffffffffffffffffffffffffffffffffffffffff161415610bca576040517f08c379a0000000000000000000000000000000000000000000000000000000008152600401610bc190611cb6565b60405180910390fd5b610bd381611407565b50565b600033905090565b600073ffffffffffffffffffffffffffffffffffffffff168373ffffffffffffffffffffffffffffffffffffffff161415610c4e576040517f08c379a0000000000000000000000000000000000000000000000000000000008152600401610c4590611d48565b60405180910390fd5b600073ffffffffffffffffffffffffffffffffffffffff168273ffffffffffffffffffffffffffffffffffffffff161415610cbe576040517f08c379a0000000000000000000000000000000000000000000000000000000008152600401610cb590611dda565b60405180910390fd5b80600160008573ffffffffffffffffffffffffffffffffffffffff1673ffffffffffffffffffffffffffffffffffffffff16815260200190815260200160002060008473ffffffffffffffffffffffffffffffffffffffff1673ffffffffffffffffffffffffffffffffffffffff168152602001908152602001600020819055508173ffffffffffffffffffffffffffffffffffffffff168373ffffffffffffffffffffffffffffffffffffffff167f8c5be1e5ebec7d5bd14f71427d1e84f3dd0314c0f7b2291e5b200ac8c7c3b92583604051610d9c91906116eb565b60405180910390a3505050565b6000610db58484610a5e565b90507fffffffffffffffffffffffffffffffffffffffffffffffffffffffffffffffff8114610e2f5781811015610e21576040517f08c379a0000000000000000000000000000000000000000000000000000000008152600401610e1890611e46565b60405180910390fd5b610e2e8484848403610bde565b5b50505050565b600073ffffffffffffffffffffffffffffffffffffffff168373ffffffffffffffffffffffffffffffffffffffff161415610ea5576040517f08c379a0000000000000000000000000000000000000000000000000000000008152600401610e9c90611ed8565b60405180910390fd5b600073ffffffffffffffffffffffffffffffffffffffff168273ffffffffffffffffffffffffffffffffffffffff161415610f15576040517f08c379a0000000000000000000000000000000000000000000000000000000008152600401610f0c90611f6a565b60405180910390fd5b610f20838383611508565b60008060008573ffffffffffffffffffffffffffffffffffffffff1673ffffffffffffffffffffffffffffffffffffffff16815260200190815260200160002054905081811015610fa6576040517f08c379a0000000000000000000000000000000000000000000000000000000008152600401610f9d90611ffc565b60405180910390fd5b8181036000808673ffffffffffffffffffffffffffffffffffffffff1673ffffffffffffffffffffffffffffffffffffffff16815260200190815260200160002081905550816000808573ffffffffffffffffffffffffffffffffffffffff1673ffffffffffffffffffffffffffffffffffffffff168152602001908152602001600020600082825461103991906119d5565b925050819055508273ffffffffffffffffffffffffffffffffffffffff168473ffffffffffffffffffffffffffffffffffffffff167fddf252ad1be2c89b69c2b068fc378daa952ba7f163c4a11628f55a4df523b3ef8460405161109d91906116eb565b60405180910390a36110b084848461150d565b50505050565b600073ffffffffffffffffffffffffffffffffffffffff168273ffffffffffffffffffffffffffffffffffffffff161415611126576040517f08c379a000000000000000000000000000000000000000000000000000000000815260040161111d9061208e565b60405180910390fd5b61113282600083611508565b60008060008473ffffffffffffffffffffffffffffffffffffffff1673ffffffffffffffffffffffffffffffffffffffff168152602001908152602001600020549050818110156111b8576040517f08c379a00000000000000000000000000000000000000000000000000000000081526004016111af90612120565b60405180910390fd5b8181036000808573ffffffffffffffffffffffffffffffffffffffff1673ffffffffffffffffffffffffffffffffffffffff16815260200190815260200160002081905550816002600082825461120f9190612140565b92505081905550600073ffffffffffffffffffffffffffffffffffffffff168373ffffffffffffffffffffffffffffffffffffffff167fddf252ad1be2c89b69c2b068fc378daa952ba7f163c4a11628f55a4df523b3ef8460405161127491906116eb565b60405180910390a36112888360008461150d565b505050565b60606000825111156112a25781518083602001fd5b600080fd5b600073ffffffffffffffffffffffffffffffffffffffff168273ffffffffffffffffffffffffffffffffffffffff161415611317576040517f08c379a000000000000000000000000000000000000000000000000000000000815260040161130e906121c0565b60405180910390fd5b61132360008383611508565b806002600082825461133591906119d5565b92505081905550806000808473ffffffffffffffffffffffffffffffffffffffff1673ffffffffffffffffffffffffffffffffffffffff168152602001908152602001600020600082825461138a91906119d5565b925050819055508173ffffffffffffffffffffffffffffffffffffffff16600073ffffffffffffffffffffffffffffffffffffffff167fddf252ad1be2c89b69c2b068fc378daa952ba7f163c4a11628f55a4df523b3ef836040516113ef91906116eb565b60405180910390a36114036000838361150d565b5050565b61140f610908565b73ffffffffffffffffffffffffffffffffffffffff168173ffffffffffffffffffffffffffffffffffffffff1614611505576000600560009054906101000a900473ffffffffffffffffffffffffffffffffffffffff16905081600560006101000a81548173ffffffffffffffffffffffffffffffffffffffff021916908373ffffffffffffffffffffffffffffffffffffffff1602179055508173ffffffffffffffffffffffffffffffffffffffff168173ffffffffffffffffffffffffffffffffffffffff167f8be0079c531659141344cd1fd0a4f28419497f9722a3daafe3b4186f6b6457e060405160405180910390a3505b50565b505050565b505050565b600081519050919050565b600082825260208201905092915050565b60005b8381101561154c578082015181840152602081019050611531565b8381111561155b576000848401525b50505050565b6000601f19601f8301169050919050565b600061157d82611512565b611587818561151d565b935061159781856020860161152e565b6115a081611561565b840191505092915050565b600060208201905081810360008301526115c58184611572565b905092915050565b600080fd5b600073ffffffffffffffffffffffffffffffffffffffff82169050919050565b60006115fd826115d2565b9050919050565b61160d816115f2565b811461161857600080fd5b50565b60008135905061162a81611604565b92915050565b6000819050919050565b61164381611630565b811461164e57600080fd5b50565b6000813590506116608161163a565b92915050565b6000806040838503121561167d5761167c6115cd565b5b600061168b8582860161161b565b925050602061169c85828601611651565b9150509250929050565b60008115159050919050565b6116bb816116a6565b82525050565b60006020820190506116d660008301846116b2565b92915050565b6116e581611630565b82525050565b600060208201905061170060008301846116dc565b92915050565b60008060006060848603121561171f5761171e6115cd565b5b600061172d8682870161161b565b935050602061173e8682870161161b565b925050604061174f86828701611651565b9150509250925092565b600060ff82169050919050565b61176f81611759565b82525050565b600060208201905061178a6000830184611766565b92915050565b6000602082840312156117a6576117a56115cd565b5b60006117b48482850161161b565b91505092915050565b6117c6816115f2565b82525050565b60006020820190506117e160008301846117bd565b92915050565b600080604083850312156117fe576117fd6115cd565b5b600061180c8582860161161b565b925050602061181d8582860161161b565b9150509250929050565b7f4e487b7100000000000000000000000000000000000000000000000000000000600052602260045260246000fd5b6000600282049050600182168061186e57607f821691505b6020821081141561188257611881611827565b5b50919050565b7f5265656e7472616e637947756172643a207265656e7472616e742063616c6c00600082015250565b60006118be601f8361151d565b91506118c982611888565b602082019050919050565b600060208201905081810360008301526118ed816118b1565b9050919050565b7f496e76616c696420616d6f756e74000000000000000000000000000000000000600082015250565b600061192a600e8361151d565b9150611935826118f4565b602082019050919050565b600060208201905081810360008301526119598161191d565b9050919050565b600081905092915050565b50565b600061197b600083611960565b91506119868261196b565b600082019050919050565b600061199c8261196e565b9150819050919050565b7f4e487b7100000000000000000000000000000000000000000000000000000000600052601160045260246000fd5b60006119e082611630565b91506119eb83611630565b9250827fffffffffffffffffffffffffffffffffffffffffffffffffffffffffffffffff03821115611a2057611a1f6119a6565b5b828201905092915050565b60007fffffffff0000000000000000000000000000000000000000000000000000000082169050919050565b611a6081611a2b565b82525050565b6000602082019050611a7b6000830184611a57565b92915050565b611a8a816116a6565b8114611a9557600080fd5b50565b600081519050611aa781611a81565b92915050565b600060208284031215611ac357611ac26115cd565b5b6000611ad184828501611a98565b91505092915050565b7f496e76616c696420726563697069656e74000000000000000000000000000000600082015250565b6000611b1060118361151d565b9150611b1b82611ada565b602082019050919050565b60006020820190508181036000830152611b3f81611b03565b9050919050565b7f4f776e61626c653a2063616c6c6572206973206e6f7420746865206f776e6572600082015250565b6000611b7c60208361151d565b9150611b8782611b46565b602082019050919050565b60006020820190508181036000830152611bab81611b6f565b9050919050565b7f45524332303a2064656372656173656420616c6c6f77616e63652062656c6f7760008201527f207a65726f000000000000000000000000000000000000000000000000000000602082015250565b6000611c0e60258361151d565b9150611c1982611bb2565b604082019050919050565b60006020820190508181036000830152611c3d81611c01565b9050919050565b7f4f776e61626c653a206e6577206f776e657220697320746865207a65726f206160008201527f6464726573730000000000000000000000000000000000000000000000000000602082015250565b6000611ca060268361151d565b9150611cab82611c44565b604082019050919050565b60006020820190508181036000830152611ccf81611c93565b9050919050565b7f45524332303a20617070726f76652066726f6d20746865207a65726f2061646460008201527f7265737300000000000000000000000000000000000000000000000000000000602082015250565b6000611d3260248361151d565b9150611d3d82611cd6565b604082019050919050565b60006020820190508181036000830152611d6181611d25565b9050919050565b7f45524332303a20617070726f766520746f20746865207a65726f20616464726560008201527f7373000000000000000000000000000000000000000000000000000000000000602082015250565b6000611dc460228361151d565b9150611dcf82611d68565b604082019050919050565b60006020820190508181036000830152611df381611db7565b9050919050565b7f45524332303a20696e73756666696369656e7420616c6c6f77616e6365000000600082015250565b6000611e30601d8361151d565b9150611e3b82611dfa565b602082019050919050565b60006020820190508181036000830152611e5f81611e23565b9050919050565b7f45524332303a207472616e736665722066726f6d20746865207a65726f20616460008201527f6472657373000000000000000000000000000000000000000000000000000000602082015250565b6000611ec260258361151d565b9150611ecd82611e66565b604082019050919050565b60006020820190508181036000830152611ef181611eb5565b9050919050565b7f45524332303a207472616e7366657220746f20746865207a65726f206164647260008201527f6573730000000000000000000000000000000000000000000000000000000000602082015250565b6000611f5460238361151d565b9150611f5f82611ef8565b604082019050919050565b60006020820190508181036000830152611f8381611f47565b9050919050565b7f45524332303a207472616e7366657220616d6f756e742065786365656473206260008201527f616c616e63650000000000000000000000000000000000000000000000000000602082015250565b6000611fe660268361151d565b9150611ff182611f8a565b604082019050919050565b6000602082019050818103600083015261201581611fd9565b9050919050565b7f45524332303a206275726e2066726f6d20746865207a65726f2061646472657360008201527f7300000000000000000000000000000000000000000000000000000000000000602082015250565b600061207860218361151d565b91506120838261201c565b604082019050919050565b600060208201905081810360008301526120a78161206b565b9050919050565b7f45524332303a206275726e20616d6f756e7420657863656564732062616c616e60008201527f6365000000000000000000000000000000000000000000000000000000000000602082015250565b600061210a60228361151d565b9150612115826120ae565b604082019050919050565b60006020820190508181036000830152612139816120fd565b9050919050565b600061214b82611630565b915061215683611630565b925082821015612169576121686119a6565b5b828203905092915050565b7f45524332303a206d696e7420746f20746865207a65726f206164647265737300600082015250565b60006121aa601f8361151d565b91506121b582612174565b602082019050919050565b600060208201905081810360008301526121d98161219d565b905091905056fea2646970667358221220ccc6956d301be817065f16c04eded89fb95c1b922c9377bac4d18cfa3091cb4c64736f6c63430008090033",
  "linkReferences": {},
  "deployedLinkReferences": {}
}